{
  "_format": "hh-sol-artifact-1",
  "contractName": "Domains",
  "sourceName": "contracts/Domains.sol",
  "abi": [
    {
      "inputs": [
        {
          "internalType": "string",
          "name": "_tld",
          "type": "string"
        }
      ],
      "stateMutability": "payable",
      "type": "constructor"
    },
    {
      "inputs": [],
      "name": "AlreadyRegistered",
      "type": "error"
    },
    {
      "inputs": [
        {
          "internalType": "string",
          "name": "name",
          "type": "string"
        }
      ],
      "name": "InvalidName",
      "type": "error"
    },
    {
      "inputs": [],
      "name": "Unauthorized",
      "type": "error"
    },
    {
      "anonymous": false,
      "inputs": [
        {
          "indexed": true,
          "internalType": "address",
          "name": "owner",
          "type": "address"
        },
        {
          "indexed": true,
          "internalType": "address",
          "name": "approved",
          "type": "address"
        },
        {
          "indexed": true,
          "internalType": "uint256",
          "name": "tokenId",
          "type": "uint256"
        }
      ],
      "name": "Approval",
      "type": "event"
    },
    {
      "anonymous": false,
      "inputs": [
        {
          "indexed": true,
          "internalType": "address",
          "name": "owner",
          "type": "address"
        },
        {
          "indexed": true,
          "internalType": "address",
          "name": "operator",
          "type": "address"
        },
        {
          "indexed": false,
          "internalType": "bool",
          "name": "approved",
          "type": "bool"
        }
      ],
      "name": "ApprovalForAll",
      "type": "event"
    },
    {
      "anonymous": false,
      "inputs": [
        {
          "indexed": true,
          "internalType": "address",
          "name": "from",
          "type": "address"
        },
        {
          "indexed": true,
          "internalType": "address",
          "name": "to",
          "type": "address"
        },
        {
          "indexed": true,
          "internalType": "uint256",
          "name": "tokenId",
          "type": "uint256"
        }
      ],
      "name": "Transfer",
      "type": "event"
    },
    {
      "inputs": [
        {
          "internalType": "address",
          "name": "to",
          "type": "address"
        },
        {
          "internalType": "uint256",
          "name": "tokenId",
          "type": "uint256"
        }
      ],
      "name": "approve",
      "outputs": [],
      "stateMutability": "nonpayable",
      "type": "function"
    },
    {
      "inputs": [
        {
          "internalType": "address",
          "name": "owner",
          "type": "address"
        }
      ],
      "name": "balanceOf",
      "outputs": [
        {
          "internalType": "uint256",
          "name": "",
          "type": "uint256"
        }
      ],
      "stateMutability": "view",
      "type": "function"
    },
    {
      "inputs": [
        {
          "internalType": "string",
          "name": "",
          "type": "string"
        }
      ],
      "name": "domains",
      "outputs": [
        {
          "internalType": "address",
          "name": "",
          "type": "address"
        }
      ],
      "stateMutability": "view",
      "type": "function"
    },
    {
      "inputs": [
        {
          "internalType": "string",
          "name": "name",
          "type": "string"
        }
      ],
      "name": "getAddress",
      "outputs": [
        {
          "internalType": "address",
          "name": "",
          "type": "address"
        }
      ],
      "stateMutability": "view",
      "type": "function"
    },
    {
      "inputs": [],
      "name": "getAllNames",
      "outputs": [
        {
          "internalType": "string[]",
          "name": "",
          "type": "string[]"
        }
      ],
      "stateMutability": "view",
      "type": "function"
    },
    {
      "inputs": [
        {
          "internalType": "uint256",
          "name": "tokenId",
          "type": "uint256"
        }
      ],
      "name": "getApproved",
      "outputs": [
        {
          "internalType": "address",
          "name": "",
          "type": "address"
        }
      ],
      "stateMutability": "view",
      "type": "function"
    },
    {
      "inputs": [
        {
          "internalType": "address",
          "name": "owner",
          "type": "address"
        },
        {
          "internalType": "address",
          "name": "operator",
          "type": "address"
        }
      ],
      "name": "isApprovedForAll",
      "outputs": [
        {
          "internalType": "bool",
          "name": "",
          "type": "bool"
        }
      ],
      "stateMutability": "view",
      "type": "function"
    },
    {
      "inputs": [],
      "name": "isOwner",
      "outputs": [
        {
          "internalType": "bool",
          "name": "",
          "type": "bool"
        }
      ],
      "stateMutability": "view",
      "type": "function"
    },
    {
      "inputs": [],
      "name": "name",
      "outputs": [
        {
          "internalType": "string",
          "name": "",
          "type": "string"
        }
      ],
      "stateMutability": "view",
      "type": "function"
    },
    {
      "inputs": [
        {
          "internalType": "uint256",
          "name": "",
          "type": "uint256"
        }
      ],
      "name": "names",
      "outputs": [
        {
          "internalType": "string",
          "name": "",
          "type": "string"
        }
      ],
      "stateMutability": "view",
      "type": "function"
    },
    {
      "inputs": [],
      "name": "owner",
      "outputs": [
        {
          "internalType": "address payable",
          "name": "",
          "type": "address"
        }
      ],
      "stateMutability": "view",
      "type": "function"
    },
    {
      "inputs": [
        {
          "internalType": "uint256",
          "name": "tokenId",
          "type": "uint256"
        }
      ],
      "name": "ownerOf",
      "outputs": [
        {
          "internalType": "address",
          "name": "",
          "type": "address"
        }
      ],
      "stateMutability": "view",
      "type": "function"
    },
    {
      "inputs": [
        {
          "internalType": "string",
          "name": "name",
          "type": "string"
        }
      ],
      "name": "price",
      "outputs": [
        {
          "internalType": "uint256",
          "name": "",
          "type": "uint256"
        }
      ],
      "stateMutability": "pure",
      "type": "function"
    },
    {
      "inputs": [
        {
          "internalType": "string",
          "name": "",
          "type": "string"
        }
      ],
      "name": "records",
      "outputs": [
        {
          "internalType": "string",
          "name": "",
          "type": "string"
        }
      ],
      "stateMutability": "view",
      "type": "function"
    },
    {
      "inputs": [
        {
          "internalType": "string",
          "name": "name",
          "type": "string"
        }
      ],
      "name": "register",
      "outputs": [],
      "stateMutability": "payable",
      "type": "function"
    },
    {
      "inputs": [
        {
          "internalType": "address",
          "name": "from",
          "type": "address"
        },
        {
          "internalType": "address",
          "name": "to",
          "type": "address"
        },
        {
          "internalType": "uint256",
          "name": "tokenId",
          "type": "uint256"
        }
      ],
      "name": "safeTransferFrom",
      "outputs": [],
      "stateMutability": "nonpayable",
      "type": "function"
    },
    {
      "inputs": [
        {
          "internalType": "address",
          "name": "from",
          "type": "address"
        },
        {
          "internalType": "address",
          "name": "to",
          "type": "address"
        },
        {
          "internalType": "uint256",
          "name": "tokenId",
          "type": "uint256"
        },
        {
          "internalType": "bytes",
          "name": "data",
          "type": "bytes"
        }
      ],
      "name": "safeTransferFrom",
      "outputs": [],
      "stateMutability": "nonpayable",
      "type": "function"
    },
    {
      "inputs": [
        {
          "internalType": "address",
          "name": "operator",
          "type": "address"
        },
        {
          "internalType": "bool",
          "name": "approved",
          "type": "bool"
        }
      ],
      "name": "setApprovalForAll",
      "outputs": [],
      "stateMutability": "nonpayable",
      "type": "function"
    },
    {
      "inputs": [
        {
          "internalType": "string",
          "name": "name",
          "type": "string"
        },
        {
          "internalType": "string",
          "name": "record",
          "type": "string"
        }
      ],
      "name": "setRecord",
      "outputs": [],
      "stateMutability": "nonpayable",
      "type": "function"
    },
    {
      "inputs": [
        {
          "internalType": "bytes4",
          "name": "interfaceId",
          "type": "bytes4"
        }
      ],
      "name": "supportsInterface",
      "outputs": [
        {
          "internalType": "bool",
          "name": "",
          "type": "bool"
        }
      ],
      "stateMutability": "view",
      "type": "function"
    },
    {
      "inputs": [],
      "name": "symbol",
      "outputs": [
        {
          "internalType": "string",
          "name": "",
          "type": "string"
        }
      ],
      "stateMutability": "view",
      "type": "function"
    },
    {
      "inputs": [],
      "name": "tld",
      "outputs": [
        {
          "internalType": "string",
          "name": "",
          "type": "string"
        }
      ],
      "stateMutability": "view",
      "type": "function"
    },
    {
      "inputs": [
        {
          "internalType": "uint256",
          "name": "tokenId",
          "type": "uint256"
        }
      ],
      "name": "tokenURI",
      "outputs": [
        {
          "internalType": "string",
          "name": "",
          "type": "string"
        }
      ],
      "stateMutability": "view",
      "type": "function"
    },
    {
      "inputs": [
        {
          "internalType": "address",
          "name": "from",
          "type": "address"
        },
        {
          "internalType": "address",
          "name": "to",
          "type": "address"
        },
        {
          "internalType": "uint256",
          "name": "tokenId",
          "type": "uint256"
        }
      ],
      "name": "transferFrom",
      "outputs": [],
      "stateMutability": "nonpayable",
      "type": "function"
    },
    {
      "inputs": [
        {
          "internalType": "string",
          "name": "name",
          "type": "string"
        }
      ],
      "name": "valid",
      "outputs": [
        {
          "internalType": "bool",
          "name": "",
          "type": "bool"
        }
      ],
      "stateMutability": "pure",
      "type": "function"
    },
    {
      "inputs": [],
      "name": "withdraw",
      "outputs": [],
      "stateMutability": "nonpayable",
      "type": "function"
    }
  ],
  "bytecode": "0x6080604052604051806107a0016040528061076e8152602001620052d461076e913960099081620000319190620004de565b506040518060400160405280600d81526020017f3c2f746578743e3c2f7376673e00000000000000000000000000000000000000815250600a9081620000789190620004de565b5060405162005a4238038062005a4283398181016040528101906200009e919062000729565b6040518060400160405280601181526020017f536d6f65204e616d6520536572766963650000000000000000000000000000008152506040518060400160405280600381526020017f534e53000000000000000000000000000000000000000000000000000000000081525081600090816200011b9190620004de565b5080600190816200012d9190620004de565b5050508060089081620001419190620004de565b506200018e6040518060400160405280601881526020017f2573206e616d652073657276696365206465706c6f7965640000000000000000815250826200019560201b620019391760201c565b5062000807565b620002378282604051602401620001ae929190620007cc565b6040516020818303038152906040527f4b5c4277000000000000000000000000000000000000000000000000000000007bffffffffffffffffffffffffffffffffffffffffffffffffffffffff19166020820180517bffffffffffffffffffffffffffffffffffffffffffffffffffffffff83818316178352505050506200023b60201b60201c565b5050565b60008151905060006a636f6e736f6c652e6c6f679050602083016000808483855afa5050505050565b600081519050919050565b7f4e487b7100000000000000000000000000000000000000000000000000000000600052604160045260246000fd5b7f4e487b7100000000000000000000000000000000000000000000000000000000600052602260045260246000fd5b60006002820490506001821680620002e657607f821691505b602082108103620002fc57620002fb6200029e565b5b50919050565b60008190508160005260206000209050919050565b60006020601f8301049050919050565b600082821b905092915050565b600060088302620003667fffffffffffffffffffffffffffffffffffffffffffffffffffffffffffffffff8262000327565b62000372868362000327565b95508019841693508086168417925050509392505050565b6000819050919050565b6000819050919050565b6000620003bf620003b9620003b3846200038a565b62000394565b6200038a565b9050919050565b6000819050919050565b620003db836200039e565b620003f3620003ea82620003c6565b84845462000334565b825550505050565b600090565b6200040a620003fb565b62000417818484620003d0565b505050565b5b818110156200043f576200043360008262000400565b6001810190506200041d565b5050565b601f8211156200048e57620004588162000302565b620004638462000317565b8101602085101562000473578190505b6200048b620004828562000317565b8301826200041c565b50505b505050565b600082821c905092915050565b6000620004b36000198460080262000493565b1980831691505092915050565b6000620004ce8383620004a0565b9150826002028217905092915050565b620004e98262000264565b67ffffffffffffffff8111156200050557620005046200026f565b5b620005118254620002cd565b6200051e82828562000443565b600060209050601f83116001811462000556576000841562000541578287015190505b6200054d8582620004c0565b865550620005bd565b601f198416620005668662000302565b60005b82811015620005905784890151825560018201915060208501945060208101905062000569565b86831015620005b05784890151620005ac601f891682620004a0565b8355505b6001600288020188555050505b505050505050565b6000604051905090565b600080fd5b600080fd5b600080fd5b600080fd5b6000601f19601f8301169050919050565b620005ff82620005e3565b810181811067ffffffffffffffff821117156200062157620006206200026f565b5b80604052505050565b600062000636620005c5565b9050620006448282620005f4565b919050565b600067ffffffffffffffff8211156200066757620006666200026f565b5b6200067282620005e3565b9050602081019050919050565b60005b838110156200069f57808201518184015260208101905062000682565b60008484015250505050565b6000620006c2620006bc8462000649565b6200062a565b905082815260208101848484011115620006e157620006e0620005de565b5b620006ee8482856200067f565b509392505050565b600082601f8301126200070e576200070d620005d9565b5b815162000720848260208601620006ab565b91505092915050565b600060208284031215620007425762000741620005cf565b5b600082015167ffffffffffffffff811115620007635762000762620005d4565b5b6200077184828501620006f6565b91505092915050565b600082825260208201905092915050565b6000620007988262000264565b620007a481856200077a565b9350620007b68185602086016200067f565b620007c181620005e3565b840191505092915050565b60006040820190508181036000830152620007e881856200078b565b90508181036020830152620007fe81846200078b565b90509392505050565b614abd80620008176000396000f3fe6080604052600436106101815760003560e01c80638da5cb5b116100d1578063bf40fac11161008a578063e985e9c511610064578063e985e9c5146105cc578063f2c298be14610609578063fb825e5f14610625578063fe2c61981461065057610181565b8063bf40fac114610529578063c1880a9814610566578063c87b56dd1461058f57610181565b80638da5cb5b146104195780638f32d59b1461044457806395d89b411461046f5780639791c0971461049a578063a22cb465146104d7578063b88d4fde1461050057610181565b80632d5514321161013e5780634622ab03116101185780634622ab0314610325578063541e771d146103625780636352211e1461039f57806370a08231146103dc57610181565b80632d551432146102ba5780633ccfd60b146102e557806342842e0e146102fc57610181565b806301ffc9a71461018657806306fdde03146101c3578063081812fc146101ee578063095ea7b31461022b57806323b872dd14610254578063264492351461027d575b600080fd5b34801561019257600080fd5b506101ad60048036038101906101a89190612ea4565b61068d565b6040516101ba9190612eec565b60405180910390f35b3480156101cf57600080fd5b506101d861076f565b6040516101e59190612f97565b60405180910390f35b3480156101fa57600080fd5b5061021560048036038101906102109190612fef565b610801565b604051610222919061305d565b60405180910390f35b34801561023757600080fd5b50610252600480360381019061024d91906130a4565b610847565b005b34801561026057600080fd5b5061027b600480360381019061027691906130e4565b61095e565b005b34801561028957600080fd5b506102a4600480360381019061029f919061326c565b6109be565b6040516102b1919061305d565b60405180910390f35b3480156102c657600080fd5b506102cf610a07565b6040516102dc9190612f97565b60405180910390f35b3480156102f157600080fd5b506102fa610a95565b005b34801561030857600080fd5b50610323600480360381019061031e91906130e4565b610b5b565b005b34801561033157600080fd5b5061034c60048036038101906103479190612fef565b610b7b565b6040516103599190612f97565b60405180910390f35b34801561036e57600080fd5b506103896004803603810190610384919061326c565b610c1b565b6040516103969190612f97565b60405180910390f35b3480156103ab57600080fd5b506103c660048036038101906103c19190612fef565b610cd1565b6040516103d3919061305d565b60405180910390f35b3480156103e857600080fd5b5061040360048036038101906103fe91906132b5565b610d57565b60405161041091906132f1565b60405180910390f35b34801561042557600080fd5b5061042e610e0e565b60405161043b919061332d565b60405180910390f35b34801561045057600080fd5b50610459610e34565b6040516104669190612eec565b60405180910390f35b34801561047b57600080fd5b50610484610e8c565b6040516104919190612f97565b60405180910390f35b3480156104a657600080fd5b506104c160048036038101906104bc91906133a8565b610f1e565b6040516104ce9190612eec565b60405180910390f35b3480156104e357600080fd5b506104fe60048036038101906104f99190613421565b610fd2565b005b34801561050c57600080fd5b5061052760048036038101906105229190613502565b610fe8565b005b34801561053557600080fd5b50610550600480360381019061054b91906133a8565b61104a565b60405161055d919061305d565b60405180910390f35b34801561057257600080fd5b5061058d60048036038101906105889190613585565b611095565b005b34801561059b57600080fd5b506105b660048036038101906105b19190612fef565b611170565b6040516105c39190612f97565b60405180910390f35b3480156105d857600080fd5b506105f360048036038101906105ee9190613606565b611282565b6040516106009190612eec565b60405180910390f35b610623600480360381019061061e91906133a8565b611316565b005b34801561063157600080fd5b5061063a6117cb565b6040516106479190613752565b60405180910390f35b34801561065c57600080fd5b50610677600480360381019061067291906133a8565b611895565b60405161068491906132f1565b60405180910390f35b60007f80ac58cd000000000000000000000000000000000000000000000000000000007bffffffffffffffffffffffffffffffffffffffffffffffffffffffff1916827bffffffffffffffffffffffffffffffffffffffffffffffffffffffff1916148061075857507f5b5e139f000000000000000000000000000000000000000000000000000000007bffffffffffffffffffffffffffffffffffffffffffffffffffffffff1916827bffffffffffffffffffffffffffffffffffffffffffffffffffffffff1916145b806107685750610767826119d5565b5b9050919050565b60606000805461077e906137a3565b80601f01602080910402602001604051908101604052809291908181526020018280546107aa906137a3565b80156107f75780601f106107cc576101008083540402835291602001916107f7565b820191906000526020600020905b8154815290600101906020018083116107da57829003601f168201915b5050505050905090565b600061080c82611a3f565b6004600083815260200190815260200160002060009054906101000a900473ffffffffffffffffffffffffffffffffffffffff169050919050565b600061085282610cd1565b90508073ffffffffffffffffffffffffffffffffffffffff168373ffffffffffffffffffffffffffffffffffffffff16036108c2576040517f08c379a00000000000000000000000000000000000000000000000000000000081526004016108b990613846565b60405180910390fd5b8073ffffffffffffffffffffffffffffffffffffffff166108e1611a8a565b73ffffffffffffffffffffffffffffffffffffffff161480610910575061090f8161090a611a8a565b611282565b5b61094f576040517f08c379a0000000000000000000000000000000000000000000000000000000008152600401610946906138d8565b60405180910390fd5b6109598383611a92565b505050565b61096f610969611a8a565b82611b4b565b6109ae576040517f08c379a00000000000000000000000000000000000000000000000000000000081526004016109a59061396a565b60405180910390fd5b6109b9838383611be0565b505050565b600b818051602081018201805184825260208301602085012081835280955050505050506000915054906101000a900473ffffffffffffffffffffffffffffffffffffffff1681565b60088054610a14906137a3565b80601f0160208091040260200160405190810160405280929190818152602001828054610a40906137a3565b8015610a8d5780601f10610a6257610100808354040283529160200191610a8d565b820191906000526020600020905b815481529060010190602001808311610a7057829003601f168201915b505050505081565b610a9d610e34565b610aa657600080fd5b600047905060003373ffffffffffffffffffffffffffffffffffffffff1682604051610ad1906139bb565b60006040518083038185875af1925050503d8060008114610b0e576040519150601f19603f3d011682016040523d82523d6000602084013e610b13565b606091505b5050905080610b57576040517f08c379a0000000000000000000000000000000000000000000000000000000008152600401610b4e90613a1c565b60405180910390fd5b5050565b610b7683838360405180602001604052806000815250610fe8565b505050565b600d6020528060005260406000206000915090508054610b9a906137a3565b80601f0160208091040260200160405190810160405280929190818152602001828054610bc6906137a3565b8015610c135780601f10610be857610100808354040283529160200191610c13565b820191906000526020600020905b815481529060010190602001808311610bf657829003601f168201915b505050505081565b600c818051602081018201805184825260208301602085012081835280955050505050506000915090508054610c50906137a3565b80601f0160208091040260200160405190810160405280929190818152602001828054610c7c906137a3565b8015610cc95780601f10610c9e57610100808354040283529160200191610cc9565b820191906000526020600020905b815481529060010190602001808311610cac57829003601f168201915b505050505081565b600080610cdd83611ed9565b9050600073ffffffffffffffffffffffffffffffffffffffff168173ffffffffffffffffffffffffffffffffffffffff1603610d4e576040517f08c379a0000000000000000000000000000000000000000000000000000000008152600401610d4590613a88565b60405180910390fd5b80915050919050565b60008073ffffffffffffffffffffffffffffffffffffffff168273ffffffffffffffffffffffffffffffffffffffff1603610dc7576040517f08c379a0000000000000000000000000000000000000000000000000000000008152600401610dbe90613b1a565b60405180910390fd5b600360008373ffffffffffffffffffffffffffffffffffffffff1673ffffffffffffffffffffffffffffffffffffffff168152602001908152602001600020549050919050565b600e60009054906101000a900473ffffffffffffffffffffffffffffffffffffffff1681565b6000600e60009054906101000a900473ffffffffffffffffffffffffffffffffffffffff1673ffffffffffffffffffffffffffffffffffffffff163373ffffffffffffffffffffffffffffffffffffffff1614905090565b606060018054610e9b906137a3565b80601f0160208091040260200160405190810160405280929190818152602001828054610ec7906137a3565b8015610f145780601f10610ee957610100808354040283529160200191610f14565b820191906000526020600020905b815481529060010190602001808311610ef757829003601f168201915b5050505050905090565b60006001610f6f84848080601f016020809104026020016040519081016040528093929190818152602001838380828437600081840152601f19601f82011690508083019250505050505050611f16565b10158015610fca57506010610fc784848080601f016020809104026020016040519081016040528093929190818152602001838380828437600081840152601f19601f82011690508083019250505050505050611f16565b11155b905092915050565b610fe4610fdd611a8a565b83836120cb565b5050565b610ff9610ff3611a8a565b83611b4b565b611038576040517f08c379a000000000000000000000000000000000000000000000000000000000815260040161102f9061396a565b60405180910390fd5b61104484848484612237565b50505050565b6000600b838360405161105e929190613b6a565b908152602001604051809103902060009054906101000a900473ffffffffffffffffffffffffffffffffffffffff16905092915050565b600b84846040516110a7929190613b6a565b908152602001604051809103902060009054906101000a900473ffffffffffffffffffffffffffffffffffffffff1673ffffffffffffffffffffffffffffffffffffffff163373ffffffffffffffffffffffffffffffffffffffff161461113a576040517f82b4290000000000000000000000000000000000000000000000000000000000815260040160405180910390fd5b8181600c868660405161114e929190613b6a565b90815260200160405180910390209182611169929190613d3a565b5050505050565b606061117b82611a3f565b600060066000848152602001908152602001600020805461119b906137a3565b80601f01602080910402602001604051908101604052809291908181526020018280546111c7906137a3565b80156112145780601f106111e957610100808354040283529160200191611214565b820191906000526020600020905b8154815290600101906020018083116111f757829003601f168201915b505050505090506000611225612293565b9050600081510361123a57819250505061127d565b60008251111561126f578082604051602001611257929190613e3b565b6040516020818303038152906040529250505061127d565b611278846122aa565b925050505b919050565b6000600560008473ffffffffffffffffffffffffffffffffffffffff1673ffffffffffffffffffffffffffffffffffffffff16815260200190815260200160002060008373ffffffffffffffffffffffffffffffffffffffff1673ffffffffffffffffffffffffffffffffffffffff16815260200190815260200160002060009054906101000a900460ff16905092915050565b600073ffffffffffffffffffffffffffffffffffffffff16600b8383604051611340929190613b6a565b908152602001604051809103902060009054906101000a900473ffffffffffffffffffffffffffffffffffffffff1673ffffffffffffffffffffffffffffffffffffffff161461138f57600080fd5b600061139b8383611895565b9050803410156113e0576040517f08c379a00000000000000000000000000000000000000000000000000000000081526004016113d790613eab565b60405180910390fd5b6000838360086040516020016113f893929190613f9a565b60405160208183030381529060405290506000600982600a60405160200161142293929190613fcb565b6040516020818303038152906040529050600061143f6007612312565b9050600061149087878080601f016020809104026020016040519081016040528093929190818152602001838380828437600081840152601f19601f82011690508083019250505050505050611f16565b9050600061149d82612320565b9050611591604051806060016040528060318152602001614a176031913989898080601f016020809104026020016040519081016040528093929190818152602001838380828437600081840152601f19601f820116905080830192505050505050506008805461150d906137a3565b80601f0160208091040260200160405190810160405280929190818152602001828054611539906137a3565b80156115865780601f1061155b57610100808354040283529160200191611586565b820191906000526020600020905b81548152906001019060200180831161156957829003601f168201915b5050505050866123ee565b600073ffffffffffffffffffffffffffffffffffffffff16600b89896040516115bb929190613b6a565b908152602001604051809103902060009054906101000a900473ffffffffffffffffffffffffffffffffffffffff1673ffffffffffffffffffffffffffffffffffffffff1614611637576040517f3a81d6fc00000000000000000000000000000000000000000000000000000000815260040160405180910390fd5b6116418888610f1e565b6116845787876040517f7f19f48d00000000000000000000000000000000000000000000000000000000815260040161167b929190614029565b60405180910390fd5b60006116ba8661169387612490565b846040516020016116a6939291906141c9565b604051602081830303815290604052612490565b90506000816040516020016116cf9190614272565b60405160208183030381529060405290506116ea33866125f3565b6116f48582612611565b611733856040518060400160405280601d81526020017f68747470733a2f2f6a736f6e6b65657065722e636f6d2f622f4f5a3233000000815250612611565b33600b8b8b604051611746929190613b6a565b908152602001604051809103902060006101000a81548173ffffffffffffffffffffffffffffffffffffffff021916908373ffffffffffffffffffffffffffffffffffffffff1602179055508989600d600088815260200190815260200160002091826117b4929190613d3a565b506117bf600761267e565b50505050505050505050565b606061180b6040518060400160405280601f81526020017f47657474696e6720616c6c206e616d65732066726f6d20636f6e747261637400815250612694565b60006118176007612312565b67ffffffffffffffff8111156118305761182f613141565b5b60405190808252806020026020018201604052801561186357816020015b606081526020019060019003908161184e5790505b50905060005b6118736007612312565b81101561188d578080611885906142c3565b915050611869565b508091505090565b6000806118e584848080601f016020809104026020016040519081016040528093929190818152602001838380828437600081840152601f19601f82011690508083019250505050505050611f16565b9050600081116118f457600080fd5b6003810361190d576706f05b59d3b20000915050611933565b6004810361192657670429d069189e0000915050611933565b67016345785d8a00009150505b92915050565b6119d1828260405160240161194f92919061430b565b6040516020818303038152906040527f4b5c4277000000000000000000000000000000000000000000000000000000007bffffffffffffffffffffffffffffffffffffffffffffffffffffffff19166020820180517bffffffffffffffffffffffffffffffffffffffffffffffffffffffff838183161783525050505061272d565b5050565b60007f01ffc9a7000000000000000000000000000000000000000000000000000000007bffffffffffffffffffffffffffffffffffffffffffffffffffffffff1916827bffffffffffffffffffffffffffffffffffffffffffffffffffffffff1916149050919050565b611a4881612756565b611a87576040517f08c379a0000000000000000000000000000000000000000000000000000000008152600401611a7e90613a88565b60405180910390fd5b50565b600033905090565b816004600083815260200190815260200160002060006101000a81548173ffffffffffffffffffffffffffffffffffffffff021916908373ffffffffffffffffffffffffffffffffffffffff160217905550808273ffffffffffffffffffffffffffffffffffffffff16611b0583610cd1565b73ffffffffffffffffffffffffffffffffffffffff167f8c5be1e5ebec7d5bd14f71427d1e84f3dd0314c0f7b2291e5b200ac8c7c3b92560405160405180910390a45050565b600080611b5783610cd1565b90508073ffffffffffffffffffffffffffffffffffffffff168473ffffffffffffffffffffffffffffffffffffffff161480611b995750611b988185611282565b5b80611bd757508373ffffffffffffffffffffffffffffffffffffffff16611bbf84610801565b73ffffffffffffffffffffffffffffffffffffffff16145b91505092915050565b8273ffffffffffffffffffffffffffffffffffffffff16611c0082610cd1565b73ffffffffffffffffffffffffffffffffffffffff1614611c56576040517f08c379a0000000000000000000000000000000000000000000000000000000008152600401611c4d906143b4565b60405180910390fd5b600073ffffffffffffffffffffffffffffffffffffffff168273ffffffffffffffffffffffffffffffffffffffff1603611cc5576040517f08c379a0000000000000000000000000000000000000000000000000000000008152600401611cbc90614446565b60405180910390fd5b611cd28383836001612797565b8273ffffffffffffffffffffffffffffffffffffffff16611cf282610cd1565b73ffffffffffffffffffffffffffffffffffffffff1614611d48576040517f08c379a0000000000000000000000000000000000000000000000000000000008152600401611d3f906143b4565b60405180910390fd5b6004600082815260200190815260200160002060006101000a81549073ffffffffffffffffffffffffffffffffffffffff02191690556001600360008573ffffffffffffffffffffffffffffffffffffffff1673ffffffffffffffffffffffffffffffffffffffff168152602001908152602001600020600082825403925050819055506001600360008473ffffffffffffffffffffffffffffffffffffffff1673ffffffffffffffffffffffffffffffffffffffff16815260200190815260200160002060008282540192505081905550816002600083815260200190815260200160002060006101000a81548173ffffffffffffffffffffffffffffffffffffffff021916908373ffffffffffffffffffffffffffffffffffffffff160217905550808273ffffffffffffffffffffffffffffffffffffffff168473ffffffffffffffffffffffffffffffffffffffff167fddf252ad1be2c89b69c2b068fc378daa952ba7f163c4a11628f55a4df523b3ef60405160405180910390a4611ed483838360016128bd565b505050565b60006002600083815260200190815260200160002060009054906101000a900473ffffffffffffffffffffffffffffffffffffffff169050919050565b60008060008084519050600092505b808210156120c0576000858381518110611f4257611f41614466565b5b602001015160f81c60f81b9050608060f81b817effffffffffffffffffffffffffffffffffffffffffffffffffffffffffffff19161015611f9157600183611f8a9190614495565b92506120ac565b60e060f81b817effffffffffffffffffffffffffffffffffffffffffffffffffffffffffffff19161015611fd357600283611fcc9190614495565b92506120ab565b60f060f81b817effffffffffffffffffffffffffffffffffffffffffffffffffffffffffffff191610156120155760038361200e9190614495565b92506120aa565b60f8801b817effffffffffffffffffffffffffffffffffffffffffffffffffffffffffffff191610156120565760048361204f9190614495565b92506120a9565b60fc60f81b817effffffffffffffffffffffffffffffffffffffffffffffffffffffffffffff19161015612098576005836120919190614495565b92506120a8565b6006836120a59190614495565b92505b5b5b5b5b5082806120b8906142c3565b935050611f25565b829350505050919050565b8173ffffffffffffffffffffffffffffffffffffffff168373ffffffffffffffffffffffffffffffffffffffff1603612139576040517f08c379a000000000000000000000000000000000000000000000000000000000815260040161213090614515565b60405180910390fd5b80600560008573ffffffffffffffffffffffffffffffffffffffff1673ffffffffffffffffffffffffffffffffffffffff16815260200190815260200160002060008473ffffffffffffffffffffffffffffffffffffffff1673ffffffffffffffffffffffffffffffffffffffff16815260200190815260200160002060006101000a81548160ff0219169083151502179055508173ffffffffffffffffffffffffffffffffffffffff168373ffffffffffffffffffffffffffffffffffffffff167f17307eab39ab6107e8899845ad3d59bd9653f200f220920489ca2b5937696c318360405161222a9190612eec565b60405180910390a3505050565b612242848484611be0565b61224e848484846128c3565b61228d576040517f08c379a0000000000000000000000000000000000000000000000000000000008152600401612284906145a7565b60405180910390fd5b50505050565b606060405180602001604052806000815250905090565b60606122b582611a3f565b60006122bf612293565b905060008151116122df576040518060200160405280600081525061230a565b806122e984612320565b6040516020016122fa929190613e3b565b6040516020818303038152906040525b915050919050565b600081600001549050919050565b60606000600161232f84612a4a565b01905060008167ffffffffffffffff81111561234e5761234d613141565b5b6040519080825280601f01601f1916602001820160405280156123805781602001600182028036833780820191505090505b509050600082602001820190505b6001156123e3578080600190039150507f3031323334353637383961626364656600000000000000000000000000000000600a86061a8153600a85816123d7576123d66145c7565b5b0494506000850361238e575b819350505050919050565b61248a8484848460405160240161240894939291906145f6565b6040516020818303038152906040527f8eafb02b000000000000000000000000000000000000000000000000000000007bffffffffffffffffffffffffffffffffffffffffffffffffffffffff19166020820180517bffffffffffffffffffffffffffffffffffffffffffffffffffffffff838183161783525050505061272d565b50505050565b606060008251036124b2576040518060200160405280600081525090506125ee565b6000604051806060016040528060408152602001614a4860409139905060006003600285516124e19190614495565b6124eb9190614650565b60046124f79190614681565b67ffffffffffffffff8111156125105761250f613141565b5b6040519080825280601f01601f1916602001820160405280156125425781602001600182028036833780820191505090505b509050600182016020820185865187015b808210156125ae576003820191508151603f8160121c168501518453600184019350603f81600c1c168501518453600184019350603f8160061c168501518453600184019350603f8116850151845360018401935050612553565b50506003865106600181146125ca57600281146125dd576125e5565b603d6001830353603d60028303536125e5565b603d60018303535b50505080925050505b919050565b61260d828260405180602001604052806000815250612b9d565b5050565b61261a82612756565b612659576040517f08c379a000000000000000000000000000000000000000000000000000000000815260040161265090614735565b60405180910390fd5b806006600084815260200190815260200160002090816126799190614755565b505050565b6001816000016000828254019250508190555050565b61272a816040516024016126a89190612f97565b6040516020818303038152906040527f41304fac000000000000000000000000000000000000000000000000000000007bffffffffffffffffffffffffffffffffffffffffffffffffffffffff19166020820180517bffffffffffffffffffffffffffffffffffffffffffffffffffffffff838183161783525050505061272d565b50565b60008151905060006a636f6e736f6c652e6c6f679050602083016000808483855afa5050505050565b60008073ffffffffffffffffffffffffffffffffffffffff1661277883611ed9565b73ffffffffffffffffffffffffffffffffffffffff1614159050919050565b60018111156128b757600073ffffffffffffffffffffffffffffffffffffffff168473ffffffffffffffffffffffffffffffffffffffff161461282b5780600360008673ffffffffffffffffffffffffffffffffffffffff1673ffffffffffffffffffffffffffffffffffffffff16815260200190815260200160002060008282546128239190614827565b925050819055505b600073ffffffffffffffffffffffffffffffffffffffff168373ffffffffffffffffffffffffffffffffffffffff16146128b65780600360008573ffffffffffffffffffffffffffffffffffffffff1673ffffffffffffffffffffffffffffffffffffffff16815260200190815260200160002060008282546128ae9190614495565b925050819055505b5b50505050565b50505050565b60006128e48473ffffffffffffffffffffffffffffffffffffffff16612bf8565b15612a3d578373ffffffffffffffffffffffffffffffffffffffff1663150b7a0261290d611a8a565b8786866040518563ffffffff1660e01b815260040161292f94939291906148b0565b6020604051808303816000875af192505050801561296b57506040513d601f19601f820116820180604052508101906129689190614911565b60015b6129ed573d806000811461299b576040519150601f19603f3d011682016040523d82523d6000602084013e6129a0565b606091505b5060008151036129e5576040517f08c379a00000000000000000000000000000000000000000000000000000000081526004016129dc906145a7565b60405180910390fd5b805181602001fd5b63150b7a0260e01b7bffffffffffffffffffffffffffffffffffffffffffffffffffffffff1916817bffffffffffffffffffffffffffffffffffffffffffffffffffffffff191614915050612a42565b600190505b949350505050565b600080600090507a184f03e93ff9f4daa797ed6e38ed64bf6a1f0100000000000000008310612aa8577a184f03e93ff9f4daa797ed6e38ed64bf6a1f0100000000000000008381612a9e57612a9d6145c7565b5b0492506040810190505b6d04ee2d6d415b85acef81000000008310612ae5576d04ee2d6d415b85acef81000000008381612adb57612ada6145c7565b5b0492506020810190505b662386f26fc100008310612b1457662386f26fc100008381612b0a57612b096145c7565b5b0492506010810190505b6305f5e1008310612b3d576305f5e1008381612b3357612b326145c7565b5b0492506008810190505b6127108310612b62576127108381612b5857612b576145c7565b5b0492506004810190505b60648310612b855760648381612b7b57612b7a6145c7565b5b0492506002810190505b600a8310612b94576001810190505b80915050919050565b612ba78383612c1b565b612bb460008484846128c3565b612bf3576040517f08c379a0000000000000000000000000000000000000000000000000000000008152600401612bea906145a7565b60405180910390fd5b505050565b6000808273ffffffffffffffffffffffffffffffffffffffff163b119050919050565b600073ffffffffffffffffffffffffffffffffffffffff168273ffffffffffffffffffffffffffffffffffffffff1603612c8a576040517f08c379a0000000000000000000000000000000000000000000000000000000008152600401612c819061498a565b60405180910390fd5b612c9381612756565b15612cd3576040517f08c379a0000000000000000000000000000000000000000000000000000000008152600401612cca906149f6565b60405180910390fd5b612ce1600083836001612797565b612cea81612756565b15612d2a576040517f08c379a0000000000000000000000000000000000000000000000000000000008152600401612d21906149f6565b60405180910390fd5b6001600360008473ffffffffffffffffffffffffffffffffffffffff1673ffffffffffffffffffffffffffffffffffffffff16815260200190815260200160002060008282540192505081905550816002600083815260200190815260200160002060006101000a81548173ffffffffffffffffffffffffffffffffffffffff021916908373ffffffffffffffffffffffffffffffffffffffff160217905550808273ffffffffffffffffffffffffffffffffffffffff16600073ffffffffffffffffffffffffffffffffffffffff167fddf252ad1be2c89b69c2b068fc378daa952ba7f163c4a11628f55a4df523b3ef60405160405180910390a4612e346000838360016128bd565b5050565b6000604051905090565b600080fd5b600080fd5b60007fffffffff0000000000000000000000000000000000000000000000000000000082169050919050565b612e8181612e4c565b8114612e8c57600080fd5b50565b600081359050612e9e81612e78565b92915050565b600060208284031215612eba57612eb9612e42565b5b6000612ec884828501612e8f565b91505092915050565b60008115159050919050565b612ee681612ed1565b82525050565b6000602082019050612f016000830184612edd565b92915050565b600081519050919050565b600082825260208201905092915050565b60005b83811015612f41578082015181840152602081019050612f26565b60008484015250505050565b6000601f19601f8301169050919050565b6000612f6982612f07565b612f738185612f12565b9350612f83818560208601612f23565b612f8c81612f4d565b840191505092915050565b60006020820190508181036000830152612fb18184612f5e565b905092915050565b6000819050919050565b612fcc81612fb9565b8114612fd757600080fd5b50565b600081359050612fe981612fc3565b92915050565b60006020828403121561300557613004612e42565b5b600061301384828501612fda565b91505092915050565b600073ffffffffffffffffffffffffffffffffffffffff82169050919050565b60006130478261301c565b9050919050565b6130578161303c565b82525050565b6000602082019050613072600083018461304e565b92915050565b6130818161303c565b811461308c57600080fd5b50565b60008135905061309e81613078565b92915050565b600080604083850312156130bb576130ba612e42565b5b60006130c98582860161308f565b92505060206130da85828601612fda565b9150509250929050565b6000806000606084860312156130fd576130fc612e42565b5b600061310b8682870161308f565b935050602061311c8682870161308f565b925050604061312d86828701612fda565b9150509250925092565b600080fd5b600080fd5b7f4e487b7100000000000000000000000000000000000000000000000000000000600052604160045260246000fd5b61317982612f4d565b810181811067ffffffffffffffff8211171561319857613197613141565b5b80604052505050565b60006131ab612e38565b90506131b78282613170565b919050565b600067ffffffffffffffff8211156131d7576131d6613141565b5b6131e082612f4d565b9050602081019050919050565b82818337600083830152505050565b600061320f61320a846131bc565b6131a1565b90508281526020810184848401111561322b5761322a61313c565b5b6132368482856131ed565b509392505050565b600082601f83011261325357613252613137565b5b81356132638482602086016131fc565b91505092915050565b60006020828403121561328257613281612e42565b5b600082013567ffffffffffffffff8111156132a05761329f612e47565b5b6132ac8482850161323e565b91505092915050565b6000602082840312156132cb576132ca612e42565b5b60006132d98482850161308f565b91505092915050565b6132eb81612fb9565b82525050565b600060208201905061330660008301846132e2565b92915050565b60006133178261301c565b9050919050565b6133278161330c565b82525050565b6000602082019050613342600083018461331e565b92915050565b600080fd5b600080fd5b60008083601f84011261336857613367613137565b5b8235905067ffffffffffffffff81111561338557613384613348565b5b6020830191508360018202830111156133a1576133a061334d565b5b9250929050565b600080602083850312156133bf576133be612e42565b5b600083013567ffffffffffffffff8111156133dd576133dc612e47565b5b6133e985828601613352565b92509250509250929050565b6133fe81612ed1565b811461340957600080fd5b50565b60008135905061341b816133f5565b92915050565b6000806040838503121561343857613437612e42565b5b60006134468582860161308f565b92505060206134578582860161340c565b9150509250929050565b600067ffffffffffffffff82111561347c5761347b613141565b5b61348582612f4d565b9050602081019050919050565b60006134a56134a084613461565b6131a1565b9050828152602081018484840111156134c1576134c061313c565b5b6134cc8482856131ed565b509392505050565b600082601f8301126134e9576134e8613137565b5b81356134f9848260208601613492565b91505092915050565b6000806000806080858703121561351c5761351b612e42565b5b600061352a8782880161308f565b945050602061353b8782880161308f565b935050604061354c87828801612fda565b925050606085013567ffffffffffffffff81111561356d5761356c612e47565b5b613579878288016134d4565b91505092959194509250565b6000806000806040858703121561359f5761359e612e42565b5b600085013567ffffffffffffffff8111156135bd576135bc612e47565b5b6135c987828801613352565b9450945050602085013567ffffffffffffffff8111156135ec576135eb612e47565b5b6135f887828801613352565b925092505092959194509250565b6000806040838503121561361d5761361c612e42565b5b600061362b8582860161308f565b925050602061363c8582860161308f565b9150509250929050565b600081519050919050565b600082825260208201905092915050565b6000819050602082019050919050565b600082825260208201905092915050565b600061368e82612f07565b6136988185613672565b93506136a8818560208601612f23565b6136b181612f4d565b840191505092915050565b60006136c88383613683565b905092915050565b6000602082019050919050565b60006136e882613646565b6136f28185613651565b93508360208202850161370485613662565b8060005b85811015613740578484038952815161372185826136bc565b945061372c836136d0565b925060208a01995050600181019050613708565b50829750879550505050505092915050565b6000602082019050818103600083015261376c81846136dd565b905092915050565b7f4e487b7100000000000000000000000000000000000000000000000000000000600052602260045260246000fd5b600060028204905060018216806137bb57607f821691505b6020821081036137ce576137cd613774565b5b50919050565b7f4552433732313a20617070726f76616c20746f2063757272656e74206f776e6560008201527f7200000000000000000000000000000000000000000000000000000000000000602082015250565b6000613830602183612f12565b915061383b826137d4565b604082019050919050565b6000602082019050818103600083015261385f81613823565b9050919050565b7f4552433732313a20617070726f76652063616c6c6572206973206e6f7420746f60008201527f6b656e206f776e6572206f7220617070726f76656420666f7220616c6c000000602082015250565b60006138c2603d83612f12565b91506138cd82613866565b604082019050919050565b600060208201905081810360008301526138f1816138b5565b9050919050565b7f4552433732313a2063616c6c6572206973206e6f7420746f6b656e206f776e6560008201527f72206f7220617070726f76656400000000000000000000000000000000000000602082015250565b6000613954602d83612f12565b915061395f826138f8565b604082019050919050565b6000602082019050818103600083015261398381613947565b9050919050565b600081905092915050565b50565b60006139a560008361398a565b91506139b082613995565b600082019050919050565b60006139c682613998565b9150819050919050565b7f4661696c656420746f207769746864726177204d617469630000000000000000600082015250565b6000613a06601883612f12565b9150613a11826139d0565b602082019050919050565b60006020820190508181036000830152613a35816139f9565b9050919050565b7f4552433732313a20696e76616c696420746f6b656e2049440000000000000000600082015250565b6000613a72601883612f12565b9150613a7d82613a3c565b602082019050919050565b60006020820190508181036000830152613aa181613a65565b9050919050565b7f4552433732313a2061646472657373207a65726f206973206e6f74206120766160008201527f6c6964206f776e65720000000000000000000000000000000000000000000000602082015250565b6000613b04602983612f12565b9150613b0f82613aa8565b604082019050919050565b60006020820190508181036000830152613b3381613af7565b9050919050565b600081905092915050565b6000613b518385613b3a565b9350613b5e8385846131ed565b82840190509392505050565b6000613b77828486613b45565b91508190509392505050565b600082905092915050565b60008190508160005260206000209050919050565b60006020601f8301049050919050565b600082821b905092915050565b600060088302613bf07fffffffffffffffffffffffffffffffffffffffffffffffffffffffffffffffff82613bb3565b613bfa8683613bb3565b95508019841693508086168417925050509392505050565b6000819050919050565b6000613c37613c32613c2d84612fb9565b613c12565b612fb9565b9050919050565b6000819050919050565b613c5183613c1c565b613c65613c5d82613c3e565b848454613bc0565b825550505050565b600090565b613c7a613c6d565b613c85818484613c48565b505050565b5b81811015613ca957613c9e600082613c72565b600181019050613c8b565b5050565b601f821115613cee57613cbf81613b8e565b613cc884613ba3565b81016020851015613cd7578190505b613ceb613ce385613ba3565b830182613c8a565b50505b505050565b600082821c905092915050565b6000613d1160001984600802613cf3565b1980831691505092915050565b6000613d2a8383613d00565b9150826002028217905092915050565b613d448383613b83565b67ffffffffffffffff811115613d5d57613d5c613141565b5b613d6782546137a3565b613d72828285613cad565b6000601f831160018114613da15760008415613d8f578287013590505b613d998582613d1e565b865550613e01565b601f198416613daf86613b8e565b60005b82811015613dd757848901358255600182019150602085019450602081019050613db2565b86831015613df45784890135613df0601f891682613d00565b8355505b6001600288020188555050505b50505050505050565b6000613e1582612f07565b613e1f8185613b3a565b9350613e2f818560208601612f23565b80840191505092915050565b6000613e478285613e0a565b9150613e538284613e0a565b91508190509392505050565b7f4e6f7420656e6f756768204d6174696320706169640000000000000000000000600082015250565b6000613e95601583612f12565b9150613ea082613e5f565b602082019050919050565b60006020820190508181036000830152613ec481613e88565b9050919050565b7f2e00000000000000000000000000000000000000000000000000000000000000600082015250565b6000613f01600183613b3a565b9150613f0c82613ecb565b600182019050919050565b60008154613f24816137a3565b613f2e8186613b3a565b94506001821660008114613f495760018114613f5e57613f91565b60ff1983168652811515820286019350613f91565b613f6785613b8e565b60005b83811015613f8957815481890152600182019150602081019050613f6a565b838801955050505b50505092915050565b6000613fa7828587613b45565b9150613fb282613ef4565b9150613fbe8284613f17565b9150819050949350505050565b6000613fd78286613f17565b9150613fe38285613e0a565b9150613fef8284613f17565b9150819050949350505050565b60006140088385612f12565b93506140158385846131ed565b61401e83612f4d565b840190509392505050565b60006020820190508181036000830152614044818486613ffc565b90509392505050565b7f7b226e616d65223a202200000000000000000000000000000000000000000000600082015250565b6000614083600a83613b3a565b915061408e8261404d565b600a82019050919050565b7f222c20226465736372697074696f6e223a20224120646f6d61696e206f6e207460008201527f686520536d6f65206e616d652073657276696365222c2022696d616765223a2060208201527f22646174613a696d6167652f7376672b786d6c3b6261736536342c0000000000604082015250565b600061411b605b83613b3a565b915061412682614099565b605b82019050919050565b7f222c226c656e677468223a220000000000000000000000000000000000000000600082015250565b6000614167600c83613b3a565b915061417282614131565b600c82019050919050565b7f227d000000000000000000000000000000000000000000000000000000000000600082015250565b60006141b3600283613b3a565b91506141be8261417d565b600282019050919050565b60006141d482614076565b91506141e08286613e0a565b91506141eb8261410e565b91506141f78285613e0a565b91506142028261415a565b915061420e8284613e0a565b9150614219826141a6565b9150819050949350505050565b7f646174613a696d6167652f7376672b786d6c3b6261736536342c000000000000600082015250565b600061425c601a83613b3a565b915061426782614226565b601a82019050919050565b600061427d8261424f565b91506142898284613e0a565b915081905092915050565b7f4e487b7100000000000000000000000000000000000000000000000000000000600052601160045260246000fd5b60006142ce82612fb9565b91507fffffffffffffffffffffffffffffffffffffffffffffffffffffffffffffffff8203614300576142ff614294565b5b600182019050919050565b600060408201905081810360008301526143258185612f5e565b905081810360208301526143398184612f5e565b90509392505050565b7f4552433732313a207472616e736665722066726f6d20696e636f72726563742060008201527f6f776e6572000000000000000000000000000000000000000000000000000000602082015250565b600061439e602583612f12565b91506143a982614342565b604082019050919050565b600060208201905081810360008301526143cd81614391565b9050919050565b7f4552433732313a207472616e7366657220746f20746865207a65726f2061646460008201527f7265737300000000000000000000000000000000000000000000000000000000602082015250565b6000614430602483612f12565b915061443b826143d4565b604082019050919050565b6000602082019050818103600083015261445f81614423565b9050919050565b7f4e487b7100000000000000000000000000000000000000000000000000000000600052603260045260246000fd5b60006144a082612fb9565b91506144ab83612fb9565b92508282019050808211156144c3576144c2614294565b5b92915050565b7f4552433732313a20617070726f766520746f2063616c6c657200000000000000600082015250565b60006144ff601983612f12565b915061450a826144c9565b602082019050919050565b6000602082019050818103600083015261452e816144f2565b9050919050565b7f4552433732313a207472616e7366657220746f206e6f6e20455243373231526560008201527f63656976657220696d706c656d656e7465720000000000000000000000000000602082015250565b6000614591603283612f12565b915061459c82614535565b604082019050919050565b600060208201905081810360008301526145c081614584565b9050919050565b7f4e487b7100000000000000000000000000000000000000000000000000000000600052601260045260246000fd5b600060808201905081810360008301526146108187612f5e565b905081810360208301526146248186612f5e565b905081810360408301526146388185612f5e565b905061464760608301846132e2565b95945050505050565b600061465b82612fb9565b915061466683612fb9565b925082614676576146756145c7565b5b828204905092915050565b600061468c82612fb9565b915061469783612fb9565b92508282026146a581612fb9565b915082820484148315176146bc576146bb614294565b5b5092915050565b7f45524337323155524953746f726167653a2055524920736574206f66206e6f6e60008201527f6578697374656e7420746f6b656e000000000000000000000000000000000000602082015250565b600061471f602e83612f12565b915061472a826146c3565b604082019050919050565b6000602082019050818103600083015261474e81614712565b9050919050565b61475e82612f07565b67ffffffffffffffff81111561477757614776613141565b5b61478182546137a3565b61478c828285613cad565b600060209050601f8311600181146147bf57600084156147ad578287015190505b6147b78582613d1e565b86555061481f565b601f1984166147cd86613b8e565b60005b828110156147f5578489015182556001820191506020850194506020810190506147d0565b86831015614812578489015161480e601f891682613d00565b8355505b6001600288020188555050505b505050505050565b600061483282612fb9565b915061483d83612fb9565b925082820390508181111561485557614854614294565b5b92915050565b600081519050919050565b600082825260208201905092915050565b60006148828261485b565b61488c8185614866565b935061489c818560208601612f23565b6148a581612f4d565b840191505092915050565b60006080820190506148c5600083018761304e565b6148d2602083018661304e565b6148df60408301856132e2565b81810360608301526148f18184614877565b905095945050505050565b60008151905061490b81612e78565b92915050565b60006020828403121561492757614926612e42565b5b6000614935848285016148fc565b91505092915050565b7f4552433732313a206d696e7420746f20746865207a65726f2061646472657373600082015250565b6000614974602083612f12565b915061497f8261493e565b602082019050919050565b600060208201905081810360008301526149a381614967565b9050919050565b7f4552433732313a20746f6b656e20616c7265616479206d696e74656400000000600082015250565b60006149e0601c83612f12565b91506149eb826149aa565b602082019050919050565b60006020820190508181036000830152614a0f816149d3565b905091905056fe5265676973746572696e672025732e2573206f6e2074686520636f6e7472616374207769746820746f6b656e49442025644142434445464748494a4b4c4d4e4f505152535455565758595a6162636465666768696a6b6c6d6e6f707172737475767778797a303132333435363738392b2fa2646970667358221220a864caea3b140dfa24207f1429575dc43e85c09e31b87fd05df1383c655be9e564736f6c634300081100333c73766720786d6c6e733d22687474703a2f2f7777772e77332e6f72672f323030302f737667222077696474683d2232373022206865696768743d22323730222066696c6c3d226e6f6e65223e3c706174682066696c6c3d2275726c282361292220643d224d302030683237307632373048307a222f3e3c646566733e3c66696c7465722069643d22622220636f6c6f722d696e746572706f6c6174696f6e2d66696c746572733d2273524742222066696c746572556e6974733d227573657253706163654f6e55736522206865696768743d22323730222077696474683d22323730223e3c666544726f70536861646f772064783d2230222064793d22312220737464446576696174696f6e3d22322220666c6f6f642d6f7061636974793d222e323235222077696474683d223230302522206865696768743d2232303025222f3e3c2f66696c7465723e3c2f646566733e3c7061746820643d224d37322e3836332034322e39343961342e33383220342e3338322030203020302d342e33393420306c2d31302e30383120362e3033322d362e383520332e3933342d31302e30383120362e30333261342e33383220342e3338322030203020312d342e33393420306c2d382e3031332d342e37323161342e353220342e35322030203020312d312e3538392d312e36313620342e353420342e35342030203020312d2e3630382d322e313837762d392e333161342e323720342e3237203020302031202e3537322d322e32303820342e323520342e323520302030203120312e3632352d312e3539356c372e3838342d342e353961342e33383220342e33383220302030203120342e33393420306c372e38383420342e353961342e353220342e353220302030203120312e35383920312e36313620342e353420342e3534203020302031202e36303820322e31383776362e3033326c362e38352d342e303635762d362e30333261342e323720342e32372030203020302d2e3537322d322e32303820342e323520342e32352030203020302d312e3632352d312e3539354c34312e3435362032342e353961342e33383220342e3338322030203020302d342e33393420306c2d31342e38363420382e36353561342e323520342e32352030203020302d312e36323520312e35393520342e32373320342e3237332030203020302d2e35373220322e3230387631372e34343161342e323720342e3237203020302030202e35373220322e32303820342e323520342e323520302030203020312e36323520312e3539356c31342e38363420382e36353561342e33383220342e33383220302030203020342e33393420306c31302e3038312d352e39303120362e38352d342e3036352031302e3038312d352e39303161342e33383220342e33383220302030203120342e33393420306c372e38383420342e353961342e353220342e353220302030203120312e35383920312e36313620342e353420342e3534203020302031202e36303820322e31383776392e33313161342e323720342e32372030203020312d2e35373220322e32303820342e323520342e32352030203020312d312e36323520312e3539356c2d372e38383420342e37323161342e33383220342e3338322030203020312d342e33393420306c2d372e3838342d342e353961342e353220342e35322030203020312d312e3538392d312e36313620342e353320342e35332030203020312d2e3630382d322e313837762d362e3033326c2d362e383520342e30363576362e30333261342e323720342e3237203020302030202e35373220322e32303820342e323520342e323520302030203020312e36323520312e3539356c31342e38363420382e36353561342e33383220342e33383220302030203020342e33393420306c31342e3836342d382e36353561342e35343520342e35343520302030203020322e3139382d332e3830335635352e35333861342e323720342e32372030203020302d2e3537322d322e32303820342e323520342e32352030203020302d312e3632352d312e3539356c2d31342e3939332d382e3738367a222066696c6c3d2223666666222f3e3c646566733e3c6c696e6561724772616469656e742069643d2261222078313d2230222079313d2230222078323d22323730222079323d2232373022206772616469656e74556e6974733d227573657253706163654f6e557365223e3c73746f702073746f702d636f6c6f723d2223636235656565222f3e3c73746f70206f66667365743d2231222073746f702d636f6c6f723d2223306364376534222073746f702d6f7061636974793d222e3939222f3e3c2f6c696e6561724772616469656e743e3c2f646566733e3c7465787420783d2233322e352220793d223233312220666f6e742d73697a653d223237222066696c6c3d2223666666222066696c7465723d2275726c282362292220666f6e742d66616d696c793d22506c7573204a616b617274612053616e732c44656a6156752053616e732c4e6f746f20436f6c6f7220456d6f6a692c4170706c6520436f6c6f7220456d6f6a692c73616e732d73657269662220666f6e742d7765696768743d22626f6c64223e",
  "linkReferences": {},
  "deployedLinkReferences": {}
}