{
  "_format": "hh-sol-artifact-1",
  "contractName": "Domains",
  "sourceName": "contracts/Domains.sol",
  "abi": [
    {
      "inputs": [
        {
          "internalType": "string",
          "name": "_tld",
          "type": "string"
        }
      ],
      "stateMutability": "payable",
      "type": "constructor"
    },
    {
      "inputs": [],
      "name": "AlreadyRegistered",
      "type": "error"
    },
    {
      "inputs": [
        {
          "internalType": "string",
          "name": "name",
          "type": "string"
        }
      ],
      "name": "InvalidName",
      "type": "error"
    },
    {
      "inputs": [],
      "name": "Unauthorized",
      "type": "error"
    },
    {
      "anonymous": false,
      "inputs": [
        {
          "indexed": true,
          "internalType": "address",
          "name": "owner",
          "type": "address"
        },
        {
          "indexed": true,
          "internalType": "address",
          "name": "approved",
          "type": "address"
        },
        {
          "indexed": true,
          "internalType": "uint256",
          "name": "tokenId",
          "type": "uint256"
        }
      ],
      "name": "Approval",
      "type": "event"
    },
    {
      "anonymous": false,
      "inputs": [
        {
          "indexed": true,
          "internalType": "address",
          "name": "owner",
          "type": "address"
        },
        {
          "indexed": true,
          "internalType": "address",
          "name": "operator",
          "type": "address"
        },
        {
          "indexed": false,
          "internalType": "bool",
          "name": "approved",
          "type": "bool"
        }
      ],
      "name": "ApprovalForAll",
      "type": "event"
    },
    {
      "anonymous": false,
      "inputs": [
        {
          "indexed": true,
          "internalType": "address",
          "name": "from",
          "type": "address"
        },
        {
          "indexed": true,
          "internalType": "address",
          "name": "to",
          "type": "address"
        },
        {
          "indexed": true,
          "internalType": "uint256",
          "name": "tokenId",
          "type": "uint256"
        }
      ],
      "name": "Transfer",
      "type": "event"
    },
    {
      "inputs": [
        {
          "internalType": "address",
          "name": "to",
          "type": "address"
        },
        {
          "internalType": "uint256",
          "name": "tokenId",
          "type": "uint256"
        }
      ],
      "name": "approve",
      "outputs": [],
      "stateMutability": "nonpayable",
      "type": "function"
    },
    {
      "inputs": [
        {
          "internalType": "address",
          "name": "owner",
          "type": "address"
        }
      ],
      "name": "balanceOf",
      "outputs": [
        {
          "internalType": "uint256",
          "name": "",
          "type": "uint256"
        }
      ],
      "stateMutability": "view",
      "type": "function"
    },
    {
      "inputs": [
        {
          "internalType": "string",
          "name": "",
          "type": "string"
        }
      ],
      "name": "domains",
      "outputs": [
        {
          "internalType": "address",
          "name": "",
          "type": "address"
        }
      ],
      "stateMutability": "view",
      "type": "function"
    },
    {
      "inputs": [
        {
          "internalType": "string",
          "name": "name",
          "type": "string"
        }
      ],
      "name": "getAddress",
      "outputs": [
        {
          "internalType": "address",
          "name": "",
          "type": "address"
        }
      ],
      "stateMutability": "view",
      "type": "function"
    },
    {
      "inputs": [],
      "name": "getAllNames",
      "outputs": [
        {
          "internalType": "string[]",
          "name": "",
          "type": "string[]"
        }
      ],
      "stateMutability": "view",
      "type": "function"
    },
    {
      "inputs": [
        {
          "internalType": "uint256",
          "name": "tokenId",
          "type": "uint256"
        }
      ],
      "name": "getApproved",
      "outputs": [
        {
          "internalType": "address",
          "name": "",
          "type": "address"
        }
      ],
      "stateMutability": "view",
      "type": "function"
    },
    {
      "inputs": [
        {
          "internalType": "address",
          "name": "owner",
          "type": "address"
        },
        {
          "internalType": "address",
          "name": "operator",
          "type": "address"
        }
      ],
      "name": "isApprovedForAll",
      "outputs": [
        {
          "internalType": "bool",
          "name": "",
          "type": "bool"
        }
      ],
      "stateMutability": "view",
      "type": "function"
    },
    {
      "inputs": [],
      "name": "isOwner",
      "outputs": [
        {
          "internalType": "bool",
          "name": "",
          "type": "bool"
        }
      ],
      "stateMutability": "view",
      "type": "function"
    },
    {
      "inputs": [],
      "name": "name",
      "outputs": [
        {
          "internalType": "string",
          "name": "",
          "type": "string"
        }
      ],
      "stateMutability": "view",
      "type": "function"
    },
    {
      "inputs": [
        {
          "internalType": "uint256",
          "name": "",
          "type": "uint256"
        }
      ],
      "name": "names",
      "outputs": [
        {
          "internalType": "string",
          "name": "",
          "type": "string"
        }
      ],
      "stateMutability": "view",
      "type": "function"
    },
    {
      "inputs": [],
      "name": "owner",
      "outputs": [
        {
          "internalType": "address payable",
          "name": "",
          "type": "address"
        }
      ],
      "stateMutability": "view",
      "type": "function"
    },
    {
      "inputs": [
        {
          "internalType": "uint256",
          "name": "tokenId",
          "type": "uint256"
        }
      ],
      "name": "ownerOf",
      "outputs": [
        {
          "internalType": "address",
          "name": "",
          "type": "address"
        }
      ],
      "stateMutability": "view",
      "type": "function"
    },
    {
      "inputs": [
        {
          "internalType": "string",
          "name": "name",
          "type": "string"
        }
      ],
      "name": "price",
      "outputs": [
        {
          "internalType": "uint256",
          "name": "",
          "type": "uint256"
        }
      ],
      "stateMutability": "pure",
      "type": "function"
    },
    {
      "inputs": [
        {
          "internalType": "string",
          "name": "",
          "type": "string"
        }
      ],
      "name": "records",
      "outputs": [
        {
          "internalType": "string",
          "name": "",
          "type": "string"
        }
      ],
      "stateMutability": "view",
      "type": "function"
    },
    {
      "inputs": [
        {
          "internalType": "string",
          "name": "name",
          "type": "string"
        }
      ],
      "name": "register",
      "outputs": [],
      "stateMutability": "payable",
      "type": "function"
    },
    {
      "inputs": [
        {
          "internalType": "address",
          "name": "from",
          "type": "address"
        },
        {
          "internalType": "address",
          "name": "to",
          "type": "address"
        },
        {
          "internalType": "uint256",
          "name": "tokenId",
          "type": "uint256"
        }
      ],
      "name": "safeTransferFrom",
      "outputs": [],
      "stateMutability": "nonpayable",
      "type": "function"
    },
    {
      "inputs": [
        {
          "internalType": "address",
          "name": "from",
          "type": "address"
        },
        {
          "internalType": "address",
          "name": "to",
          "type": "address"
        },
        {
          "internalType": "uint256",
          "name": "tokenId",
          "type": "uint256"
        },
        {
          "internalType": "bytes",
          "name": "data",
          "type": "bytes"
        }
      ],
      "name": "safeTransferFrom",
      "outputs": [],
      "stateMutability": "nonpayable",
      "type": "function"
    },
    {
      "inputs": [
        {
          "internalType": "address",
          "name": "operator",
          "type": "address"
        },
        {
          "internalType": "bool",
          "name": "approved",
          "type": "bool"
        }
      ],
      "name": "setApprovalForAll",
      "outputs": [],
      "stateMutability": "nonpayable",
      "type": "function"
    },
    {
      "inputs": [
        {
          "internalType": "string",
          "name": "name",
          "type": "string"
        },
        {
          "internalType": "string",
          "name": "record",
          "type": "string"
        }
      ],
      "name": "setRecord",
      "outputs": [],
      "stateMutability": "nonpayable",
      "type": "function"
    },
    {
      "inputs": [
        {
          "internalType": "bytes4",
          "name": "interfaceId",
          "type": "bytes4"
        }
      ],
      "name": "supportsInterface",
      "outputs": [
        {
          "internalType": "bool",
          "name": "",
          "type": "bool"
        }
      ],
      "stateMutability": "view",
      "type": "function"
    },
    {
      "inputs": [],
      "name": "symbol",
      "outputs": [
        {
          "internalType": "string",
          "name": "",
          "type": "string"
        }
      ],
      "stateMutability": "view",
      "type": "function"
    },
    {
      "inputs": [],
      "name": "tld",
      "outputs": [
        {
          "internalType": "string",
          "name": "",
          "type": "string"
        }
      ],
      "stateMutability": "view",
      "type": "function"
    },
    {
      "inputs": [
        {
          "internalType": "uint256",
          "name": "tokenId",
          "type": "uint256"
        }
      ],
      "name": "tokenURI",
      "outputs": [
        {
          "internalType": "string",
          "name": "",
          "type": "string"
        }
      ],
      "stateMutability": "view",
      "type": "function"
    },
    {
      "inputs": [
        {
          "internalType": "address",
          "name": "from",
          "type": "address"
        },
        {
          "internalType": "address",
          "name": "to",
          "type": "address"
        },
        {
          "internalType": "uint256",
          "name": "tokenId",
          "type": "uint256"
        }
      ],
      "name": "transferFrom",
      "outputs": [],
      "stateMutability": "nonpayable",
      "type": "function"
    },
    {
      "inputs": [
        {
          "internalType": "string",
          "name": "name",
          "type": "string"
        }
      ],
      "name": "valid",
      "outputs": [
        {
          "internalType": "bool",
          "name": "",
          "type": "bool"
        }
      ],
      "stateMutability": "pure",
      "type": "function"
    },
    {
      "inputs": [],
      "name": "withdraw",
      "outputs": [],
      "stateMutability": "nonpayable",
      "type": "function"
    }
  ],
  "bytecode": "0x6080604052604051806108a0016040528061086b81526020016200548d61086b913960099081620000319190620004de565b506040518060400160405280600d81526020017f3c2f746578743e3c2f7376673e00000000000000000000000000000000000000815250600a9081620000789190620004de565b5060405162005cf838038062005cf883398181016040528101906200009e919062000729565b6040518060400160405280601181526020017f4f637479204e616d6520536572766963650000000000000000000000000000008152506040518060400160405280600381526020017f4f4e53000000000000000000000000000000000000000000000000000000000081525081600090816200011b9190620004de565b5080600190816200012d9190620004de565b5050508060089081620001419190620004de565b506200018e6040518060400160405280601881526020017f2573206e616d652073657276696365206465706c6f7965640000000000000000815250826200019560201b62001a0e1760201c565b5062000807565b620002378282604051602401620001ae929190620007cc565b6040516020818303038152906040527f4b5c4277000000000000000000000000000000000000000000000000000000007bffffffffffffffffffffffffffffffffffffffffffffffffffffffff19166020820180517bffffffffffffffffffffffffffffffffffffffffffffffffffffffff83818316178352505050506200023b60201b60201c565b5050565b60008151905060006a636f6e736f6c652e6c6f679050602083016000808483855afa5050505050565b600081519050919050565b7f4e487b7100000000000000000000000000000000000000000000000000000000600052604160045260246000fd5b7f4e487b7100000000000000000000000000000000000000000000000000000000600052602260045260246000fd5b60006002820490506001821680620002e657607f821691505b602082108103620002fc57620002fb6200029e565b5b50919050565b60008190508160005260206000209050919050565b60006020601f8301049050919050565b600082821b905092915050565b600060088302620003667fffffffffffffffffffffffffffffffffffffffffffffffffffffffffffffffff8262000327565b62000372868362000327565b95508019841693508086168417925050509392505050565b6000819050919050565b6000819050919050565b6000620003bf620003b9620003b3846200038a565b62000394565b6200038a565b9050919050565b6000819050919050565b620003db836200039e565b620003f3620003ea82620003c6565b84845462000334565b825550505050565b600090565b6200040a620003fb565b62000417818484620003d0565b505050565b5b818110156200043f576200043360008262000400565b6001810190506200041d565b5050565b601f8211156200048e57620004588162000302565b620004638462000317565b8101602085101562000473578190505b6200048b620004828562000317565b8301826200041c565b50505b505050565b600082821c905092915050565b6000620004b36000198460080262000493565b1980831691505092915050565b6000620004ce8383620004a0565b9150826002028217905092915050565b620004e98262000264565b67ffffffffffffffff8111156200050557620005046200026f565b5b620005118254620002cd565b6200051e82828562000443565b600060209050601f83116001811462000556576000841562000541578287015190505b6200054d8582620004c0565b865550620005bd565b601f198416620005668662000302565b60005b82811015620005905784890151825560018201915060208501945060208101905062000569565b86831015620005b05784890151620005ac601f891682620004a0565b8355505b6001600288020188555050505b505050505050565b6000604051905090565b600080fd5b600080fd5b600080fd5b600080fd5b6000601f19601f8301169050919050565b620005ff82620005e3565b810181811067ffffffffffffffff821117156200062157620006206200026f565b5b80604052505050565b600062000636620005c5565b9050620006448282620005f4565b919050565b600067ffffffffffffffff8211156200066757620006666200026f565b5b6200067282620005e3565b9050602081019050919050565b60005b838110156200069f57808201518184015260208101905062000682565b60008484015250505050565b6000620006c2620006bc8462000649565b6200062a565b905082815260208101848484011115620006e157620006e0620005de565b5b620006ee8482856200067f565b509392505050565b600082601f8301126200070e576200070d620005d9565b5b815162000720848260208601620006ab565b91505092915050565b600060208284031215620007425762000741620005cf565b5b600082015167ffffffffffffffff811115620007635762000762620005d4565b5b6200077184828501620006f6565b91505092915050565b600082825260208201905092915050565b6000620007988262000264565b620007a481856200077a565b9350620007b68185602086016200067f565b620007c181620005e3565b840191505092915050565b60006040820190508181036000830152620007e881856200078b565b90508181036020830152620007fe81846200078b565b90509392505050565b614c7680620008176000396000f3fe6080604052600436106101815760003560e01c80638da5cb5b116100d1578063bf40fac11161008a578063e985e9c511610064578063e985e9c5146105cc578063f2c298be14610609578063fb825e5f14610625578063fe2c61981461065057610181565b8063bf40fac114610529578063c1880a9814610566578063c87b56dd1461058f57610181565b80638da5cb5b146104195780638f32d59b1461044457806395d89b411461046f5780639791c0971461049a578063a22cb465146104d7578063b88d4fde1461050057610181565b80632d5514321161013e5780634622ab03116101185780634622ab0314610325578063541e771d146103625780636352211e1461039f57806370a08231146103dc57610181565b80632d551432146102ba5780633ccfd60b146102e557806342842e0e146102fc57610181565b806301ffc9a71461018657806306fdde03146101c3578063081812fc146101ee578063095ea7b31461022b57806323b872dd14610254578063264492351461027d575b600080fd5b34801561019257600080fd5b506101ad60048036038101906101a89190613018565b61068d565b6040516101ba9190613060565b60405180910390f35b3480156101cf57600080fd5b506101d861076f565b6040516101e5919061310b565b60405180910390f35b3480156101fa57600080fd5b5061021560048036038101906102109190613163565b610801565b60405161022291906131d1565b60405180910390f35b34801561023757600080fd5b50610252600480360381019061024d9190613218565b610847565b005b34801561026057600080fd5b5061027b60048036038101906102769190613258565b61095e565b005b34801561028957600080fd5b506102a4600480360381019061029f91906133e0565b6109be565b6040516102b191906131d1565b60405180910390f35b3480156102c657600080fd5b506102cf610a07565b6040516102dc919061310b565b60405180910390f35b3480156102f157600080fd5b506102fa610a95565b005b34801561030857600080fd5b50610323600480360381019061031e9190613258565b610b5b565b005b34801561033157600080fd5b5061034c60048036038101906103479190613163565b610b7b565b604051610359919061310b565b60405180910390f35b34801561036e57600080fd5b50610389600480360381019061038491906133e0565b610c1b565b604051610396919061310b565b60405180910390f35b3480156103ab57600080fd5b506103c660048036038101906103c19190613163565b610cd1565b6040516103d391906131d1565b60405180910390f35b3480156103e857600080fd5b5061040360048036038101906103fe9190613429565b610d57565b6040516104109190613465565b60405180910390f35b34801561042557600080fd5b5061042e610e0e565b60405161043b91906134a1565b60405180910390f35b34801561045057600080fd5b50610459610e34565b6040516104669190613060565b60405180910390f35b34801561047b57600080fd5b50610484610e8c565b604051610491919061310b565b60405180910390f35b3480156104a657600080fd5b506104c160048036038101906104bc919061351c565b610f1e565b6040516104ce9190613060565b60405180910390f35b3480156104e357600080fd5b506104fe60048036038101906104f99190613595565b610fd2565b005b34801561050c57600080fd5b5061052760048036038101906105229190613676565b610fe8565b005b34801561053557600080fd5b50610550600480360381019061054b919061351c565b61104a565b60405161055d91906131d1565b60405180910390f35b34801561057257600080fd5b5061058d600480360381019061058891906136f9565b611095565b005b34801561059b57600080fd5b506105b660048036038101906105b19190613163565b611170565b6040516105c3919061310b565b60405180910390f35b3480156105d857600080fd5b506105f360048036038101906105ee919061377a565b611282565b6040516106009190613060565b60405180910390f35b610623600480360381019061061e919061351c565b611316565b005b34801561063157600080fd5b5061063a61178c565b60405161064791906138c6565b60405180910390f35b34801561065c57600080fd5b506106776004803603810190610672919061351c565b61196a565b6040516106849190613465565b60405180910390f35b60007f80ac58cd000000000000000000000000000000000000000000000000000000007bffffffffffffffffffffffffffffffffffffffffffffffffffffffff1916827bffffffffffffffffffffffffffffffffffffffffffffffffffffffff1916148061075857507f5b5e139f000000000000000000000000000000000000000000000000000000007bffffffffffffffffffffffffffffffffffffffffffffffffffffffff1916827bffffffffffffffffffffffffffffffffffffffffffffffffffffffff1916145b80610768575061076782611aaa565b5b9050919050565b60606000805461077e90613917565b80601f01602080910402602001604051908101604052809291908181526020018280546107aa90613917565b80156107f75780601f106107cc576101008083540402835291602001916107f7565b820191906000526020600020905b8154815290600101906020018083116107da57829003601f168201915b5050505050905090565b600061080c82611b14565b6004600083815260200190815260200160002060009054906101000a900473ffffffffffffffffffffffffffffffffffffffff169050919050565b600061085282610cd1565b90508073ffffffffffffffffffffffffffffffffffffffff168373ffffffffffffffffffffffffffffffffffffffff16036108c2576040517f08c379a00000000000000000000000000000000000000000000000000000000081526004016108b9906139ba565b60405180910390fd5b8073ffffffffffffffffffffffffffffffffffffffff166108e1611b5f565b73ffffffffffffffffffffffffffffffffffffffff161480610910575061090f8161090a611b5f565b611282565b5b61094f576040517f08c379a000000000000000000000000000000000000000000000000000000000815260040161094690613a4c565b60405180910390fd5b6109598383611b67565b505050565b61096f610969611b5f565b82611c20565b6109ae576040517f08c379a00000000000000000000000000000000000000000000000000000000081526004016109a590613ade565b60405180910390fd5b6109b9838383611cb5565b505050565b600b818051602081018201805184825260208301602085012081835280955050505050506000915054906101000a900473ffffffffffffffffffffffffffffffffffffffff1681565b60088054610a1490613917565b80601f0160208091040260200160405190810160405280929190818152602001828054610a4090613917565b8015610a8d5780601f10610a6257610100808354040283529160200191610a8d565b820191906000526020600020905b815481529060010190602001808311610a7057829003601f168201915b505050505081565b610a9d610e34565b610aa657600080fd5b600047905060003373ffffffffffffffffffffffffffffffffffffffff1682604051610ad190613b2f565b60006040518083038185875af1925050503d8060008114610b0e576040519150601f19603f3d011682016040523d82523d6000602084013e610b13565b606091505b5050905080610b57576040517f08c379a0000000000000000000000000000000000000000000000000000000008152600401610b4e90613b90565b60405180910390fd5b5050565b610b7683838360405180602001604052806000815250610fe8565b505050565b600d6020528060005260406000206000915090508054610b9a90613917565b80601f0160208091040260200160405190810160405280929190818152602001828054610bc690613917565b8015610c135780601f10610be857610100808354040283529160200191610c13565b820191906000526020600020905b815481529060010190602001808311610bf657829003601f168201915b505050505081565b600c818051602081018201805184825260208301602085012081835280955050505050506000915090508054610c5090613917565b80601f0160208091040260200160405190810160405280929190818152602001828054610c7c90613917565b8015610cc95780601f10610c9e57610100808354040283529160200191610cc9565b820191906000526020600020905b815481529060010190602001808311610cac57829003601f168201915b505050505081565b600080610cdd83611fae565b9050600073ffffffffffffffffffffffffffffffffffffffff168173ffffffffffffffffffffffffffffffffffffffff1603610d4e576040517f08c379a0000000000000000000000000000000000000000000000000000000008152600401610d4590613bfc565b60405180910390fd5b80915050919050565b60008073ffffffffffffffffffffffffffffffffffffffff168273ffffffffffffffffffffffffffffffffffffffff1603610dc7576040517f08c379a0000000000000000000000000000000000000000000000000000000008152600401610dbe90613c8e565b60405180910390fd5b600360008373ffffffffffffffffffffffffffffffffffffffff1673ffffffffffffffffffffffffffffffffffffffff168152602001908152602001600020549050919050565b600e60009054906101000a900473ffffffffffffffffffffffffffffffffffffffff1681565b6000600e60009054906101000a900473ffffffffffffffffffffffffffffffffffffffff1673ffffffffffffffffffffffffffffffffffffffff163373ffffffffffffffffffffffffffffffffffffffff1614905090565b606060018054610e9b90613917565b80601f0160208091040260200160405190810160405280929190818152602001828054610ec790613917565b8015610f145780601f10610ee957610100808354040283529160200191610f14565b820191906000526020600020905b815481529060010190602001808311610ef757829003601f168201915b5050505050905090565b60006001610f6f84848080601f016020809104026020016040519081016040528093929190818152602001838380828437600081840152601f19601f82011690508083019250505050505050611feb565b10158015610fca57506010610fc784848080601f016020809104026020016040519081016040528093929190818152602001838380828437600081840152601f19601f82011690508083019250505050505050611feb565b11155b905092915050565b610fe4610fdd611b5f565b83836121a0565b5050565b610ff9610ff3611b5f565b83611c20565b611038576040517f08c379a000000000000000000000000000000000000000000000000000000000815260040161102f90613ade565b60405180910390fd5b6110448484848461230c565b50505050565b6000600b838360405161105e929190613cde565b908152602001604051809103902060009054906101000a900473ffffffffffffffffffffffffffffffffffffffff16905092915050565b600b84846040516110a7929190613cde565b908152602001604051809103902060009054906101000a900473ffffffffffffffffffffffffffffffffffffffff1673ffffffffffffffffffffffffffffffffffffffff163373ffffffffffffffffffffffffffffffffffffffff161461113a576040517f82b4290000000000000000000000000000000000000000000000000000000000815260040160405180910390fd5b8181600c868660405161114e929190613cde565b90815260200160405180910390209182611169929190613eae565b5050505050565b606061117b82611b14565b600060066000848152602001908152602001600020805461119b90613917565b80601f01602080910402602001604051908101604052809291908181526020018280546111c790613917565b80156112145780601f106111e957610100808354040283529160200191611214565b820191906000526020600020905b8154815290600101906020018083116111f757829003601f168201915b505050505090506000611225612368565b9050600081510361123a57819250505061127d565b60008251111561126f578082604051602001611257929190613faf565b6040516020818303038152906040529250505061127d565b6112788461237f565b925050505b919050565b6000600560008473ffffffffffffffffffffffffffffffffffffffff1673ffffffffffffffffffffffffffffffffffffffff16815260200190815260200160002060008373ffffffffffffffffffffffffffffffffffffffff1673ffffffffffffffffffffffffffffffffffffffff16815260200190815260200160002060009054906101000a900460ff16905092915050565b600073ffffffffffffffffffffffffffffffffffffffff16600b8383604051611340929190613cde565b908152602001604051809103902060009054906101000a900473ffffffffffffffffffffffffffffffffffffffff1673ffffffffffffffffffffffffffffffffffffffff161461138f57600080fd5b600061139b838361196a565b9050803410156113e0576040517f08c379a00000000000000000000000000000000000000000000000000000000081526004016113d79061401f565b60405180910390fd5b6000838360086040516020016113f89392919061410e565b60405160208183030381529060405290506000600982600a6040516020016114229392919061413f565b6040516020818303038152906040529050600061143f60076123e7565b9050600061149087878080601f016020809104026020016040519081016040528093929190818152602001838380828437600081840152601f19601f82011690508083019250505050505050611feb565b9050600061149d826123f5565b9050611591604051806060016040528060318152602001614bd06031913989898080601f016020809104026020016040519081016040528093929190818152602001838380828437600081840152601f19601f820116905080830192505050505050506008805461150d90613917565b80601f016020809104026020016040519081016040528092919081815260200182805461153990613917565b80156115865780601f1061155b57610100808354040283529160200191611586565b820191906000526020600020905b81548152906001019060200180831161156957829003601f168201915b5050505050866124c3565b600073ffffffffffffffffffffffffffffffffffffffff16600b89896040516115bb929190613cde565b908152602001604051809103902060009054906101000a900473ffffffffffffffffffffffffffffffffffffffff1673ffffffffffffffffffffffffffffffffffffffff1614611637576040517f3a81d6fc00000000000000000000000000000000000000000000000000000000815260040160405180910390fd5b6116418888610f1e565b6116845787876040517f7f19f48d00000000000000000000000000000000000000000000000000000000815260040161167b92919061419d565b60405180910390fd5b60006116ba8661169387612565565b846040516020016116a69392919061433d565b604051602081830303815290604052612565565b90506000816040516020016116cf91906143e6565b60405160208183030381529060405290506116ea33866126c8565b6116f485826126e6565b33600b8b8b604051611707929190613cde565b908152602001604051809103902060006101000a81548173ffffffffffffffffffffffffffffffffffffffff021916908373ffffffffffffffffffffffffffffffffffffffff1602179055508989600d60008881526020019081526020016000209182611775929190613eae565b506117806007612753565b50505050505050505050565b60606117cc6040518060400160405280601f81526020017f47657474696e6720616c6c206e616d65732066726f6d20636f6e747261637400815250612769565b60006117d860076123e7565b67ffffffffffffffff8111156117f1576117f06132b5565b5b60405190808252806020026020018201604052801561182457816020015b606081526020019060019003908161180f5790505b50905060005b61183460076123e7565b81101561196257600d6000828152602001908152602001600020805461185990613917565b80601f016020809104026020016040519081016040528092919081815260200182805461188590613917565b80156118d25780601f106118a7576101008083540402835291602001916118d2565b820191906000526020600020905b8154815290600101906020018083116118b557829003601f168201915b50505050508282815181106118ea576118e9614408565b5b602002602001018190525061194f6040518060400160405280601781526020017f4e616d6520666f7220746f6b656e2025642069732025730000000000000000008152508284848151811061194257611941614408565b5b6020026020010151612802565b808061195a90614466565b91505061182a565b508091505090565b6000806119ba84848080601f016020809104026020016040519081016040528093929190818152602001838380828437600081840152601f19601f82011690508083019250505050505050611feb565b9050600081116119c957600080fd5b600381036119e2576706f05b59d3b20000915050611a08565b600481036119fb57670429d069189e0000915050611a08565b67016345785d8a00009150505b92915050565b611aa68282604051602401611a249291906144ae565b6040516020818303038152906040527f4b5c4277000000000000000000000000000000000000000000000000000000007bffffffffffffffffffffffffffffffffffffffffffffffffffffffff19166020820180517bffffffffffffffffffffffffffffffffffffffffffffffffffffffff83818316178352505050506128a1565b5050565b60007f01ffc9a7000000000000000000000000000000000000000000000000000000007bffffffffffffffffffffffffffffffffffffffffffffffffffffffff1916827bffffffffffffffffffffffffffffffffffffffffffffffffffffffff1916149050919050565b611b1d816128ca565b611b5c576040517f08c379a0000000000000000000000000000000000000000000000000000000008152600401611b5390613bfc565b60405180910390fd5b50565b600033905090565b816004600083815260200190815260200160002060006101000a81548173ffffffffffffffffffffffffffffffffffffffff021916908373ffffffffffffffffffffffffffffffffffffffff160217905550808273ffffffffffffffffffffffffffffffffffffffff16611bda83610cd1565b73ffffffffffffffffffffffffffffffffffffffff167f8c5be1e5ebec7d5bd14f71427d1e84f3dd0314c0f7b2291e5b200ac8c7c3b92560405160405180910390a45050565b600080611c2c83610cd1565b90508073ffffffffffffffffffffffffffffffffffffffff168473ffffffffffffffffffffffffffffffffffffffff161480611c6e5750611c6d8185611282565b5b80611cac57508373ffffffffffffffffffffffffffffffffffffffff16611c9484610801565b73ffffffffffffffffffffffffffffffffffffffff16145b91505092915050565b8273ffffffffffffffffffffffffffffffffffffffff16611cd582610cd1565b73ffffffffffffffffffffffffffffffffffffffff1614611d2b576040517f08c379a0000000000000000000000000000000000000000000000000000000008152600401611d2290614557565b60405180910390fd5b600073ffffffffffffffffffffffffffffffffffffffff168273ffffffffffffffffffffffffffffffffffffffff1603611d9a576040517f08c379a0000000000000000000000000000000000000000000000000000000008152600401611d91906145e9565b60405180910390fd5b611da7838383600161290b565b8273ffffffffffffffffffffffffffffffffffffffff16611dc782610cd1565b73ffffffffffffffffffffffffffffffffffffffff1614611e1d576040517f08c379a0000000000000000000000000000000000000000000000000000000008152600401611e1490614557565b60405180910390fd5b6004600082815260200190815260200160002060006101000a81549073ffffffffffffffffffffffffffffffffffffffff02191690556001600360008573ffffffffffffffffffffffffffffffffffffffff1673ffffffffffffffffffffffffffffffffffffffff168152602001908152602001600020600082825403925050819055506001600360008473ffffffffffffffffffffffffffffffffffffffff1673ffffffffffffffffffffffffffffffffffffffff16815260200190815260200160002060008282540192505081905550816002600083815260200190815260200160002060006101000a81548173ffffffffffffffffffffffffffffffffffffffff021916908373ffffffffffffffffffffffffffffffffffffffff160217905550808273ffffffffffffffffffffffffffffffffffffffff168473ffffffffffffffffffffffffffffffffffffffff167fddf252ad1be2c89b69c2b068fc378daa952ba7f163c4a11628f55a4df523b3ef60405160405180910390a4611fa98383836001612a31565b505050565b60006002600083815260200190815260200160002060009054906101000a900473ffffffffffffffffffffffffffffffffffffffff169050919050565b60008060008084519050600092505b8082101561219557600085838151811061201757612016614408565b5b602001015160f81c60f81b9050608060f81b817effffffffffffffffffffffffffffffffffffffffffffffffffffffffffffff191610156120665760018361205f9190614609565b9250612181565b60e060f81b817effffffffffffffffffffffffffffffffffffffffffffffffffffffffffffff191610156120a8576002836120a19190614609565b9250612180565b60f060f81b817effffffffffffffffffffffffffffffffffffffffffffffffffffffffffffff191610156120ea576003836120e39190614609565b925061217f565b60f8801b817effffffffffffffffffffffffffffffffffffffffffffffffffffffffffffff1916101561212b576004836121249190614609565b925061217e565b60fc60f81b817effffffffffffffffffffffffffffffffffffffffffffffffffffffffffffff1916101561216d576005836121669190614609565b925061217d565b60068361217a9190614609565b92505b5b5b5b5b50828061218d90614466565b935050611ffa565b829350505050919050565b8173ffffffffffffffffffffffffffffffffffffffff168373ffffffffffffffffffffffffffffffffffffffff160361220e576040517f08c379a000000000000000000000000000000000000000000000000000000000815260040161220590614689565b60405180910390fd5b80600560008573ffffffffffffffffffffffffffffffffffffffff1673ffffffffffffffffffffffffffffffffffffffff16815260200190815260200160002060008473ffffffffffffffffffffffffffffffffffffffff1673ffffffffffffffffffffffffffffffffffffffff16815260200190815260200160002060006101000a81548160ff0219169083151502179055508173ffffffffffffffffffffffffffffffffffffffff168373ffffffffffffffffffffffffffffffffffffffff167f17307eab39ab6107e8899845ad3d59bd9653f200f220920489ca2b5937696c31836040516122ff9190613060565b60405180910390a3505050565b612317848484611cb5565b61232384848484612a37565b612362576040517f08c379a00000000000000000000000000000000000000000000000000000000081526004016123599061471b565b60405180910390fd5b50505050565b606060405180602001604052806000815250905090565b606061238a82611b14565b6000612394612368565b905060008151116123b457604051806020016040528060008152506123df565b806123be846123f5565b6040516020016123cf929190613faf565b6040516020818303038152906040525b915050919050565b600081600001549050919050565b60606000600161240484612bbe565b01905060008167ffffffffffffffff811115612423576124226132b5565b5b6040519080825280601f01601f1916602001820160405280156124555781602001600182028036833780820191505090505b509050600082602001820190505b6001156124b8578080600190039150507f3031323334353637383961626364656600000000000000000000000000000000600a86061a8153600a85816124ac576124ab61473b565b5b04945060008503612463575b819350505050919050565b61255f848484846040516024016124dd949392919061476a565b6040516020818303038152906040527f8eafb02b000000000000000000000000000000000000000000000000000000007bffffffffffffffffffffffffffffffffffffffffffffffffffffffff19166020820180517bffffffffffffffffffffffffffffffffffffffffffffffffffffffff83818316178352505050506128a1565b50505050565b60606000825103612587576040518060200160405280600081525090506126c3565b6000604051806060016040528060408152602001614c0160409139905060006003600285516125b69190614609565b6125c091906147c4565b60046125cc91906147f5565b67ffffffffffffffff8111156125e5576125e46132b5565b5b6040519080825280601f01601f1916602001820160405280156126175781602001600182028036833780820191505090505b509050600182016020820185865187015b80821015612683576003820191508151603f8160121c168501518453600184019350603f81600c1c168501518453600184019350603f8160061c168501518453600184019350603f8116850151845360018401935050612628565b505060038651066001811461269f57600281146126b2576126ba565b603d6001830353603d60028303536126ba565b603d60018303535b50505080925050505b919050565b6126e2828260405180602001604052806000815250612d11565b5050565b6126ef826128ca565b61272e576040517f08c379a0000000000000000000000000000000000000000000000000000000008152600401612725906148a9565b60405180910390fd5b8060066000848152602001908152602001600020908161274e91906148c9565b505050565b6001816000016000828254019250508190555050565b6127ff8160405160240161277d919061310b565b6040516020818303038152906040527f41304fac000000000000000000000000000000000000000000000000000000007bffffffffffffffffffffffffffffffffffffffffffffffffffffffff19166020820180517bffffffffffffffffffffffffffffffffffffffffffffffffffffffff83818316178352505050506128a1565b50565b61289c83838360405160240161281a9392919061499b565b6040516020818303038152906040527f5970e089000000000000000000000000000000000000000000000000000000007bffffffffffffffffffffffffffffffffffffffffffffffffffffffff19166020820180517bffffffffffffffffffffffffffffffffffffffffffffffffffffffff83818316178352505050506128a1565b505050565b60008151905060006a636f6e736f6c652e6c6f679050602083016000808483855afa5050505050565b60008073ffffffffffffffffffffffffffffffffffffffff166128ec83611fae565b73ffffffffffffffffffffffffffffffffffffffff1614159050919050565b6001811115612a2b57600073ffffffffffffffffffffffffffffffffffffffff168473ffffffffffffffffffffffffffffffffffffffff161461299f5780600360008673ffffffffffffffffffffffffffffffffffffffff1673ffffffffffffffffffffffffffffffffffffffff168152602001908152602001600020600082825461299791906149e0565b925050819055505b600073ffffffffffffffffffffffffffffffffffffffff168373ffffffffffffffffffffffffffffffffffffffff1614612a2a5780600360008573ffffffffffffffffffffffffffffffffffffffff1673ffffffffffffffffffffffffffffffffffffffff1681526020019081526020016000206000828254612a229190614609565b925050819055505b5b50505050565b50505050565b6000612a588473ffffffffffffffffffffffffffffffffffffffff16612d6c565b15612bb1578373ffffffffffffffffffffffffffffffffffffffff1663150b7a02612a81611b5f565b8786866040518563ffffffff1660e01b8152600401612aa39493929190614a69565b6020604051808303816000875af1925050508015612adf57506040513d601f19601f82011682018060405250810190612adc9190614aca565b60015b612b61573d8060008114612b0f576040519150601f19603f3d011682016040523d82523d6000602084013e612b14565b606091505b506000815103612b59576040517f08c379a0000000000000000000000000000000000000000000000000000000008152600401612b509061471b565b60405180910390fd5b805181602001fd5b63150b7a0260e01b7bffffffffffffffffffffffffffffffffffffffffffffffffffffffff1916817bffffffffffffffffffffffffffffffffffffffffffffffffffffffff191614915050612bb6565b600190505b949350505050565b600080600090507a184f03e93ff9f4daa797ed6e38ed64bf6a1f0100000000000000008310612c1c577a184f03e93ff9f4daa797ed6e38ed64bf6a1f0100000000000000008381612c1257612c1161473b565b5b0492506040810190505b6d04ee2d6d415b85acef81000000008310612c59576d04ee2d6d415b85acef81000000008381612c4f57612c4e61473b565b5b0492506020810190505b662386f26fc100008310612c8857662386f26fc100008381612c7e57612c7d61473b565b5b0492506010810190505b6305f5e1008310612cb1576305f5e1008381612ca757612ca661473b565b5b0492506008810190505b6127108310612cd6576127108381612ccc57612ccb61473b565b5b0492506004810190505b60648310612cf95760648381612cef57612cee61473b565b5b0492506002810190505b600a8310612d08576001810190505b80915050919050565b612d1b8383612d8f565b612d286000848484612a37565b612d67576040517f08c379a0000000000000000000000000000000000000000000000000000000008152600401612d5e9061471b565b60405180910390fd5b505050565b6000808273ffffffffffffffffffffffffffffffffffffffff163b119050919050565b600073ffffffffffffffffffffffffffffffffffffffff168273ffffffffffffffffffffffffffffffffffffffff1603612dfe576040517f08c379a0000000000000000000000000000000000000000000000000000000008152600401612df590614b43565b60405180910390fd5b612e07816128ca565b15612e47576040517f08c379a0000000000000000000000000000000000000000000000000000000008152600401612e3e90614baf565b60405180910390fd5b612e5560008383600161290b565b612e5e816128ca565b15612e9e576040517f08c379a0000000000000000000000000000000000000000000000000000000008152600401612e9590614baf565b60405180910390fd5b6001600360008473ffffffffffffffffffffffffffffffffffffffff1673ffffffffffffffffffffffffffffffffffffffff16815260200190815260200160002060008282540192505081905550816002600083815260200190815260200160002060006101000a81548173ffffffffffffffffffffffffffffffffffffffff021916908373ffffffffffffffffffffffffffffffffffffffff160217905550808273ffffffffffffffffffffffffffffffffffffffff16600073ffffffffffffffffffffffffffffffffffffffff167fddf252ad1be2c89b69c2b068fc378daa952ba7f163c4a11628f55a4df523b3ef60405160405180910390a4612fa8600083836001612a31565b5050565b6000604051905090565b600080fd5b600080fd5b60007fffffffff0000000000000000000000000000000000000000000000000000000082169050919050565b612ff581612fc0565b811461300057600080fd5b50565b60008135905061301281612fec565b92915050565b60006020828403121561302e5761302d612fb6565b5b600061303c84828501613003565b91505092915050565b60008115159050919050565b61305a81613045565b82525050565b60006020820190506130756000830184613051565b92915050565b600081519050919050565b600082825260208201905092915050565b60005b838110156130b557808201518184015260208101905061309a565b60008484015250505050565b6000601f19601f8301169050919050565b60006130dd8261307b565b6130e78185613086565b93506130f7818560208601613097565b613100816130c1565b840191505092915050565b6000602082019050818103600083015261312581846130d2565b905092915050565b6000819050919050565b6131408161312d565b811461314b57600080fd5b50565b60008135905061315d81613137565b92915050565b60006020828403121561317957613178612fb6565b5b60006131878482850161314e565b91505092915050565b600073ffffffffffffffffffffffffffffffffffffffff82169050919050565b60006131bb82613190565b9050919050565b6131cb816131b0565b82525050565b60006020820190506131e660008301846131c2565b92915050565b6131f5816131b0565b811461320057600080fd5b50565b600081359050613212816131ec565b92915050565b6000806040838503121561322f5761322e612fb6565b5b600061323d85828601613203565b925050602061324e8582860161314e565b9150509250929050565b60008060006060848603121561327157613270612fb6565b5b600061327f86828701613203565b935050602061329086828701613203565b92505060406132a18682870161314e565b9150509250925092565b600080fd5b600080fd5b7f4e487b7100000000000000000000000000000000000000000000000000000000600052604160045260246000fd5b6132ed826130c1565b810181811067ffffffffffffffff8211171561330c5761330b6132b5565b5b80604052505050565b600061331f612fac565b905061332b82826132e4565b919050565b600067ffffffffffffffff82111561334b5761334a6132b5565b5b613354826130c1565b9050602081019050919050565b82818337600083830152505050565b600061338361337e84613330565b613315565b90508281526020810184848401111561339f5761339e6132b0565b5b6133aa848285613361565b509392505050565b600082601f8301126133c7576133c66132ab565b5b81356133d7848260208601613370565b91505092915050565b6000602082840312156133f6576133f5612fb6565b5b600082013567ffffffffffffffff81111561341457613413612fbb565b5b613420848285016133b2565b91505092915050565b60006020828403121561343f5761343e612fb6565b5b600061344d84828501613203565b91505092915050565b61345f8161312d565b82525050565b600060208201905061347a6000830184613456565b92915050565b600061348b82613190565b9050919050565b61349b81613480565b82525050565b60006020820190506134b66000830184613492565b92915050565b600080fd5b600080fd5b60008083601f8401126134dc576134db6132ab565b5b8235905067ffffffffffffffff8111156134f9576134f86134bc565b5b602083019150836001820283011115613515576135146134c1565b5b9250929050565b6000806020838503121561353357613532612fb6565b5b600083013567ffffffffffffffff81111561355157613550612fbb565b5b61355d858286016134c6565b92509250509250929050565b61357281613045565b811461357d57600080fd5b50565b60008135905061358f81613569565b92915050565b600080604083850312156135ac576135ab612fb6565b5b60006135ba85828601613203565b92505060206135cb85828601613580565b9150509250929050565b600067ffffffffffffffff8211156135f0576135ef6132b5565b5b6135f9826130c1565b9050602081019050919050565b6000613619613614846135d5565b613315565b905082815260208101848484011115613635576136346132b0565b5b613640848285613361565b509392505050565b600082601f83011261365d5761365c6132ab565b5b813561366d848260208601613606565b91505092915050565b600080600080608085870312156136905761368f612fb6565b5b600061369e87828801613203565b94505060206136af87828801613203565b93505060406136c08782880161314e565b925050606085013567ffffffffffffffff8111156136e1576136e0612fbb565b5b6136ed87828801613648565b91505092959194509250565b6000806000806040858703121561371357613712612fb6565b5b600085013567ffffffffffffffff81111561373157613730612fbb565b5b61373d878288016134c6565b9450945050602085013567ffffffffffffffff8111156137605761375f612fbb565b5b61376c878288016134c6565b925092505092959194509250565b6000806040838503121561379157613790612fb6565b5b600061379f85828601613203565b92505060206137b085828601613203565b9150509250929050565b600081519050919050565b600082825260208201905092915050565b6000819050602082019050919050565b600082825260208201905092915050565b60006138028261307b565b61380c81856137e6565b935061381c818560208601613097565b613825816130c1565b840191505092915050565b600061383c83836137f7565b905092915050565b6000602082019050919050565b600061385c826137ba565b61386681856137c5565b935083602082028501613878856137d6565b8060005b858110156138b457848403895281516138958582613830565b94506138a083613844565b925060208a0199505060018101905061387c565b50829750879550505050505092915050565b600060208201905081810360008301526138e08184613851565b905092915050565b7f4e487b7100000000000000000000000000000000000000000000000000000000600052602260045260246000fd5b6000600282049050600182168061392f57607f821691505b602082108103613942576139416138e8565b5b50919050565b7f4552433732313a20617070726f76616c20746f2063757272656e74206f776e6560008201527f7200000000000000000000000000000000000000000000000000000000000000602082015250565b60006139a4602183613086565b91506139af82613948565b604082019050919050565b600060208201905081810360008301526139d381613997565b9050919050565b7f4552433732313a20617070726f76652063616c6c6572206973206e6f7420746f60008201527f6b656e206f776e6572206f7220617070726f76656420666f7220616c6c000000602082015250565b6000613a36603d83613086565b9150613a41826139da565b604082019050919050565b60006020820190508181036000830152613a6581613a29565b9050919050565b7f4552433732313a2063616c6c6572206973206e6f7420746f6b656e206f776e6560008201527f72206f7220617070726f76656400000000000000000000000000000000000000602082015250565b6000613ac8602d83613086565b9150613ad382613a6c565b604082019050919050565b60006020820190508181036000830152613af781613abb565b9050919050565b600081905092915050565b50565b6000613b19600083613afe565b9150613b2482613b09565b600082019050919050565b6000613b3a82613b0c565b9150819050919050565b7f4661696c656420746f207769746864726177204d617469630000000000000000600082015250565b6000613b7a601883613086565b9150613b8582613b44565b602082019050919050565b60006020820190508181036000830152613ba981613b6d565b9050919050565b7f4552433732313a20696e76616c696420746f6b656e2049440000000000000000600082015250565b6000613be6601883613086565b9150613bf182613bb0565b602082019050919050565b60006020820190508181036000830152613c1581613bd9565b9050919050565b7f4552433732313a2061646472657373207a65726f206973206e6f74206120766160008201527f6c6964206f776e65720000000000000000000000000000000000000000000000602082015250565b6000613c78602983613086565b9150613c8382613c1c565b604082019050919050565b60006020820190508181036000830152613ca781613c6b565b9050919050565b600081905092915050565b6000613cc58385613cae565b9350613cd2838584613361565b82840190509392505050565b6000613ceb828486613cb9565b91508190509392505050565b600082905092915050565b60008190508160005260206000209050919050565b60006020601f8301049050919050565b600082821b905092915050565b600060088302613d647fffffffffffffffffffffffffffffffffffffffffffffffffffffffffffffffff82613d27565b613d6e8683613d27565b95508019841693508086168417925050509392505050565b6000819050919050565b6000613dab613da6613da18461312d565b613d86565b61312d565b9050919050565b6000819050919050565b613dc583613d90565b613dd9613dd182613db2565b848454613d34565b825550505050565b600090565b613dee613de1565b613df9818484613dbc565b505050565b5b81811015613e1d57613e12600082613de6565b600181019050613dff565b5050565b601f821115613e6257613e3381613d02565b613e3c84613d17565b81016020851015613e4b578190505b613e5f613e5785613d17565b830182613dfe565b50505b505050565b600082821c905092915050565b6000613e8560001984600802613e67565b1980831691505092915050565b6000613e9e8383613e74565b9150826002028217905092915050565b613eb88383613cf7565b67ffffffffffffffff811115613ed157613ed06132b5565b5b613edb8254613917565b613ee6828285613e21565b6000601f831160018114613f155760008415613f03578287013590505b613f0d8582613e92565b865550613f75565b601f198416613f2386613d02565b60005b82811015613f4b57848901358255600182019150602085019450602081019050613f26565b86831015613f685784890135613f64601f891682613e74565b8355505b6001600288020188555050505b50505050505050565b6000613f898261307b565b613f938185613cae565b9350613fa3818560208601613097565b80840191505092915050565b6000613fbb8285613f7e565b9150613fc78284613f7e565b91508190509392505050565b7f4e6f7420656e6f756768204d6174696320706169640000000000000000000000600082015250565b6000614009601583613086565b915061401482613fd3565b602082019050919050565b6000602082019050818103600083015261403881613ffc565b9050919050565b7f2e00000000000000000000000000000000000000000000000000000000000000600082015250565b6000614075600183613cae565b91506140808261403f565b600182019050919050565b6000815461409881613917565b6140a28186613cae565b945060018216600081146140bd57600181146140d257614105565b60ff1983168652811515820286019350614105565b6140db85613d02565b60005b838110156140fd578154818901526001820191506020810190506140de565b838801955050505b50505092915050565b600061411b828587613cb9565b915061412682614068565b9150614132828461408b565b9150819050949350505050565b600061414b828661408b565b91506141578285613f7e565b9150614163828461408b565b9150819050949350505050565b600061417c8385613086565b9350614189838584613361565b614192836130c1565b840190509392505050565b600060208201905081810360008301526141b8818486614170565b90509392505050565b7f7b226e616d65223a202200000000000000000000000000000000000000000000600082015250565b60006141f7600a83613cae565b9150614202826141c1565b600a82019050919050565b7f222c20226465736372697074696f6e223a20224120646f6d61696e206f6e207460008201527f6865204e696e6a61206e616d652073657276696365222c2022696d616765223a60208201527f2022646174613a696d6167652f7376672b786d6c3b6261736536342c00000000604082015250565b600061428f605c83613cae565b915061429a8261420d565b605c82019050919050565b7f222c226c656e677468223a220000000000000000000000000000000000000000600082015250565b60006142db600c83613cae565b91506142e6826142a5565b600c82019050919050565b7f227d000000000000000000000000000000000000000000000000000000000000600082015250565b6000614327600283613cae565b9150614332826142f1565b600282019050919050565b6000614348826141ea565b91506143548286613f7e565b915061435f82614282565b915061436b8285613f7e565b9150614376826142ce565b91506143828284613f7e565b915061438d8261431a565b9150819050949350505050565b7f646174613a696d6167652f7376672b786d6c3b6261736536342c000000000000600082015250565b60006143d0601a83613cae565b91506143db8261439a565b601a82019050919050565b60006143f1826143c3565b91506143fd8284613f7e565b915081905092915050565b7f4e487b7100000000000000000000000000000000000000000000000000000000600052603260045260246000fd5b7f4e487b7100000000000000000000000000000000000000000000000000000000600052601160045260246000fd5b60006144718261312d565b91507fffffffffffffffffffffffffffffffffffffffffffffffffffffffffffffffff82036144a3576144a2614437565b5b600182019050919050565b600060408201905081810360008301526144c881856130d2565b905081810360208301526144dc81846130d2565b90509392505050565b7f4552433732313a207472616e736665722066726f6d20696e636f72726563742060008201527f6f776e6572000000000000000000000000000000000000000000000000000000602082015250565b6000614541602583613086565b915061454c826144e5565b604082019050919050565b6000602082019050818103600083015261457081614534565b9050919050565b7f4552433732313a207472616e7366657220746f20746865207a65726f2061646460008201527f7265737300000000000000000000000000000000000000000000000000000000602082015250565b60006145d3602483613086565b91506145de82614577565b604082019050919050565b60006020820190508181036000830152614602816145c6565b9050919050565b60006146148261312d565b915061461f8361312d565b925082820190508082111561463757614636614437565b5b92915050565b7f4552433732313a20617070726f766520746f2063616c6c657200000000000000600082015250565b6000614673601983613086565b915061467e8261463d565b602082019050919050565b600060208201905081810360008301526146a281614666565b9050919050565b7f4552433732313a207472616e7366657220746f206e6f6e20455243373231526560008201527f63656976657220696d706c656d656e7465720000000000000000000000000000602082015250565b6000614705603283613086565b9150614710826146a9565b604082019050919050565b60006020820190508181036000830152614734816146f8565b9050919050565b7f4e487b7100000000000000000000000000000000000000000000000000000000600052601260045260246000fd5b6000608082019050818103600083015261478481876130d2565b9050818103602083015261479881866130d2565b905081810360408301526147ac81856130d2565b90506147bb6060830184613456565b95945050505050565b60006147cf8261312d565b91506147da8361312d565b9250826147ea576147e961473b565b5b828204905092915050565b60006148008261312d565b915061480b8361312d565b92508282026148198161312d565b915082820484148315176148305761482f614437565b5b5092915050565b7f45524337323155524953746f726167653a2055524920736574206f66206e6f6e60008201527f6578697374656e7420746f6b656e000000000000000000000000000000000000602082015250565b6000614893602e83613086565b915061489e82614837565b604082019050919050565b600060208201905081810360008301526148c281614886565b9050919050565b6148d28261307b565b67ffffffffffffffff8111156148eb576148ea6132b5565b5b6148f58254613917565b614900828285613e21565b600060209050601f8311600181146149335760008415614921578287015190505b61492b8582613e92565b865550614993565b601f19841661494186613d02565b60005b8281101561496957848901518255600182019150602085019450602081019050614944565b868310156149865784890151614982601f891682613e74565b8355505b6001600288020188555050505b505050505050565b600060608201905081810360008301526149b581866130d2565b90506149c46020830185613456565b81810360408301526149d681846130d2565b9050949350505050565b60006149eb8261312d565b91506149f68361312d565b9250828203905081811115614a0e57614a0d614437565b5b92915050565b600081519050919050565b600082825260208201905092915050565b6000614a3b82614a14565b614a458185614a1f565b9350614a55818560208601613097565b614a5e816130c1565b840191505092915050565b6000608082019050614a7e60008301876131c2565b614a8b60208301866131c2565b614a986040830185613456565b8181036060830152614aaa8184614a30565b905095945050505050565b600081519050614ac481612fec565b92915050565b600060208284031215614ae057614adf612fb6565b5b6000614aee84828501614ab5565b91505092915050565b7f4552433732313a206d696e7420746f20746865207a65726f2061646472657373600082015250565b6000614b2d602083613086565b9150614b3882614af7565b602082019050919050565b60006020820190508181036000830152614b5c81614b20565b9050919050565b7f4552433732313a20746f6b656e20616c7265616479206d696e74656400000000600082015250565b6000614b99601c83613086565b9150614ba482614b63565b602082019050919050565b60006020820190508181036000830152614bc881614b8c565b905091905056fe5265676973746572696e672025732e2573206f6e2074686520636f6e7472616374207769746820746f6b656e49442025644142434445464748494a4b4c4d4e4f505152535455565758595a6162636465666768696a6b6c6d6e6f707172737475767778797a303132333435363738392b2fa2646970667358221220bee18b43beec2432982345b7cae857b9d0e7748cbd173ac14ad045d5a6c3f23764736f6c634300081100333c73766720786d6c6e733d22687474703a2f2f7777772e77332e6f72672f323030302f737667222077696474683d2232373022206865696768743d22323730222066696c6c3d226e6f6e65223e3c706174682066696c6c3d2275726c282342292220643d224d302030683237307632373048307a222f3e3c646566733e3c66696c7465722069643d22412220636f6c6f722d696e746572706f6c6174696f6e2d66696c746572733d2273524742222066696c746572556e6974733d227573657253706163654f6e55736522206865696768743d22323730222077696474683d22323730223e3c666544726f70536861646f772064783d2230222064793d22312220737464446576696174696f6e3d22322220666c6f6f642d6f7061636974793d222e323235222077696474683d223230302522206865696768743d2232303025222f3e3c2f66696c7465723e3c2f646566733e3c7061746820643d224d37322e3836332034322e393439632d2e3636382d2e3338372d312e3432362d2e35392d322e3139372d2e3539732d312e3532392e3230342d322e3139372e35396c2d31302e30383120362e3033322d362e383520332e3933342d31302e30383120362e303332632d2e3636382e3338372d312e3432362e35392d322e3139372e3539732d312e3532392d2e3230342d322e3139372d2e35396c2d382e3031332d342e37323161342e353220342e35322030203020312d312e3538392d312e363136632d2e3338342d2e3636352d2e3539342d312e3431382d2e3630382d322e313837762d392e3331632d2e3031332d2e3737352e3138352d312e3533382e3537322d322e32303861342e323520342e323520302030203120312e3632352d312e3539356c372e3838342d342e3539632e3636382d2e33383720312e3432362d2e353920322e3139372d2e353973312e3532392e32303420322e3139372e35396c372e38383420342e353961342e353220342e353220302030203120312e35383920312e363136632e3338342e3636352e35393420312e3431382e36303820322e31383776362e3033326c362e38352d342e303635762d362e303332632e3031332d2e3737352d2e3138352d312e3533382d2e3537322d322e32303861342e323520342e32352030203020302d312e3632352d312e3539354c34312e3435362032342e3539632d2e3636382d2e3338372d312e3432362d2e35392d322e3139372d2e3539732d312e3532392e3230342d322e3139372e35396c2d31342e38363420382e36353561342e323520342e32352030203020302d312e36323520312e353935632d2e3338372e36372d2e35383520312e3433342d2e35373220322e3230387631372e343431632d2e3031332e3737352e31383520312e3533382e35373220322e32303861342e323520342e323520302030203020312e36323520312e3539356c31342e38363420382e363535632e3636382e33383720312e3432362e353920322e3139372e353973312e3532392d2e32303420322e3139372d2e35396c31302e3038312d352e39303120362e38352d342e3036352031302e3038312d352e393031632e3636382d2e33383720312e3432362d2e353920322e3139372d2e353973312e3532392e32303420322e3139372e35396c372e38383420342e353961342e353220342e353220302030203120312e35383920312e363136632e3338342e3636352e35393420312e3431382e36303820322e31383776392e333131632e3031332e3737352d2e31383520312e3533382d2e35373220322e32303861342e323520342e32352030203020312d312e36323520312e3539356c2d372e38383420342e373231632d2e3636382e3338372d312e3432362e35392d322e3139372e3539732d312e3532392d2e3230342d322e3139372d2e35396c2d372e3838342d342e353961342e353220342e35322030203020312d312e3538392d312e363136632d2e3338352d2e3636352d2e3539342d312e3431382d2e3630382d322e313837762d362e3033326c2d362e383520342e30363576362e303332632d2e3031332e3737352e31383520312e3533382e35373220322e32303861342e323520342e323520302030203020312e36323520312e3539356c31342e38363420382e363535632e3636382e33383720312e3432362e353920322e3139372e353973312e3532392d2e32303420322e3139372d2e35396c31342e3836342d382e363535632e3635372d2e33393420312e3230342d2e393520312e3538392d312e363136732e3539342d312e3431382e3630392d322e3138375635352e353338632e3031332d2e3737352d2e3138352d312e3533382d2e3537322d322e32303861342e323520342e32352030203020302d312e3632352d312e3539356c2d31342e3939332d382e3738367a222066696c6c3d2223666666222f3e3c646566733e3c6c696e6561724772616469656e742069643d2242222078313d2230222079313d2230222078323d22323730222079323d2232373022206772616469656e74556e6974733d227573657253706163654f6e557365223e3c73746f702073746f702d636f6c6f723d2223636235656565222f3e3c73746f70206f66667365743d2231222073746f702d636f6c6f723d2223306364376534222073746f702d6f7061636974793d222e3939222f3e3c2f6c696e6561724772616469656e743e3c2f646566733e3c7465787420783d2233322e352220793d223233312220666f6e742d73697a653d223237222066696c6c3d2223666666222066696c7465723d2275726c282341292220666f6e742d66616d696c793d22506c7573204a616b617274612053616e732c44656a6156752053616e732c4e6f746f20436f6c6f7220456d6f6a692c4170706c6520436f6c6f7220456d6f6a692c73616e732d73657269662220666f6e742d7765696768743d22626f6c64223e",
  "linkReferences": {},
  "deployedLinkReferences": {}
}