{
  "_format": "hh-sol-artifact-1",
  "contractName": "Domains",
  "sourceName": "contracts/Domains.sol",
  "abi": [
    {
      "inputs": [
        {
          "internalType": "string",
          "name": "_tld",
          "type": "string"
        }
      ],
      "stateMutability": "payable",
      "type": "constructor"
    },
    {
      "inputs": [],
      "name": "AlreadyRegistered",
      "type": "error"
    },
    {
      "inputs": [
        {
          "internalType": "string",
          "name": "name",
          "type": "string"
        }
      ],
      "name": "InvalidName",
      "type": "error"
    },
    {
      "inputs": [],
      "name": "Unauthorized",
      "type": "error"
    },
    {
      "anonymous": false,
      "inputs": [
        {
          "indexed": true,
          "internalType": "address",
          "name": "owner",
          "type": "address"
        },
        {
          "indexed": true,
          "internalType": "address",
          "name": "approved",
          "type": "address"
        },
        {
          "indexed": true,
          "internalType": "uint256",
          "name": "tokenId",
          "type": "uint256"
        }
      ],
      "name": "Approval",
      "type": "event"
    },
    {
      "anonymous": false,
      "inputs": [
        {
          "indexed": true,
          "internalType": "address",
          "name": "owner",
          "type": "address"
        },
        {
          "indexed": true,
          "internalType": "address",
          "name": "operator",
          "type": "address"
        },
        {
          "indexed": false,
          "internalType": "bool",
          "name": "approved",
          "type": "bool"
        }
      ],
      "name": "ApprovalForAll",
      "type": "event"
    },
    {
      "anonymous": false,
      "inputs": [
        {
          "indexed": true,
          "internalType": "address",
          "name": "from",
          "type": "address"
        },
        {
          "indexed": true,
          "internalType": "address",
          "name": "to",
          "type": "address"
        },
        {
          "indexed": true,
          "internalType": "uint256",
          "name": "tokenId",
          "type": "uint256"
        }
      ],
      "name": "Transfer",
      "type": "event"
    },
    {
      "inputs": [
        {
          "internalType": "address",
          "name": "to",
          "type": "address"
        },
        {
          "internalType": "uint256",
          "name": "tokenId",
          "type": "uint256"
        }
      ],
      "name": "approve",
      "outputs": [],
      "stateMutability": "nonpayable",
      "type": "function"
    },
    {
      "inputs": [
        {
          "internalType": "address",
          "name": "owner",
          "type": "address"
        }
      ],
      "name": "balanceOf",
      "outputs": [
        {
          "internalType": "uint256",
          "name": "",
          "type": "uint256"
        }
      ],
      "stateMutability": "view",
      "type": "function"
    },
    {
      "inputs": [
        {
          "internalType": "string",
          "name": "",
          "type": "string"
        }
      ],
      "name": "domains",
      "outputs": [
        {
          "internalType": "address",
          "name": "",
          "type": "address"
        }
      ],
      "stateMutability": "view",
      "type": "function"
    },
    {
      "inputs": [
        {
          "internalType": "string",
          "name": "name",
          "type": "string"
        }
      ],
      "name": "getAddress",
      "outputs": [
        {
          "internalType": "address",
          "name": "",
          "type": "address"
        }
      ],
      "stateMutability": "view",
      "type": "function"
    },
    {
      "inputs": [
        {
          "internalType": "uint256",
          "name": "tokenId",
          "type": "uint256"
        }
      ],
      "name": "getApproved",
      "outputs": [
        {
          "internalType": "address",
          "name": "",
          "type": "address"
        }
      ],
      "stateMutability": "view",
      "type": "function"
    },
    {
      "inputs": [
        {
          "internalType": "string",
          "name": "name",
          "type": "string"
        }
      ],
      "name": "getRecord",
      "outputs": [
        {
          "internalType": "string",
          "name": "",
          "type": "string"
        }
      ],
      "stateMutability": "view",
      "type": "function"
    },
    {
      "inputs": [
        {
          "internalType": "address",
          "name": "owner",
          "type": "address"
        },
        {
          "internalType": "address",
          "name": "operator",
          "type": "address"
        }
      ],
      "name": "isApprovedForAll",
      "outputs": [
        {
          "internalType": "bool",
          "name": "",
          "type": "bool"
        }
      ],
      "stateMutability": "view",
      "type": "function"
    },
    {
      "inputs": [],
      "name": "isOwner",
      "outputs": [
        {
          "internalType": "bool",
          "name": "",
          "type": "bool"
        }
      ],
      "stateMutability": "view",
      "type": "function"
    },
    {
      "inputs": [],
      "name": "name",
      "outputs": [
        {
          "internalType": "string",
          "name": "",
          "type": "string"
        }
      ],
      "stateMutability": "view",
      "type": "function"
    },
    {
      "inputs": [],
      "name": "owner",
      "outputs": [
        {
          "internalType": "address payable",
          "name": "",
          "type": "address"
        }
      ],
      "stateMutability": "view",
      "type": "function"
    },
    {
      "inputs": [
        {
          "internalType": "uint256",
          "name": "tokenId",
          "type": "uint256"
        }
      ],
      "name": "ownerOf",
      "outputs": [
        {
          "internalType": "address",
          "name": "",
          "type": "address"
        }
      ],
      "stateMutability": "view",
      "type": "function"
    },
    {
      "inputs": [
        {
          "internalType": "string",
          "name": "name",
          "type": "string"
        }
      ],
      "name": "price",
      "outputs": [
        {
          "internalType": "uint256",
          "name": "",
          "type": "uint256"
        }
      ],
      "stateMutability": "pure",
      "type": "function"
    },
    {
      "inputs": [
        {
          "internalType": "string",
          "name": "",
          "type": "string"
        }
      ],
      "name": "records",
      "outputs": [
        {
          "internalType": "string",
          "name": "",
          "type": "string"
        }
      ],
      "stateMutability": "view",
      "type": "function"
    },
    {
      "inputs": [
        {
          "internalType": "string",
          "name": "name",
          "type": "string"
        }
      ],
      "name": "register",
      "outputs": [],
      "stateMutability": "payable",
      "type": "function"
    },
    {
      "inputs": [
        {
          "internalType": "address",
          "name": "from",
          "type": "address"
        },
        {
          "internalType": "address",
          "name": "to",
          "type": "address"
        },
        {
          "internalType": "uint256",
          "name": "tokenId",
          "type": "uint256"
        }
      ],
      "name": "safeTransferFrom",
      "outputs": [],
      "stateMutability": "nonpayable",
      "type": "function"
    },
    {
      "inputs": [
        {
          "internalType": "address",
          "name": "from",
          "type": "address"
        },
        {
          "internalType": "address",
          "name": "to",
          "type": "address"
        },
        {
          "internalType": "uint256",
          "name": "tokenId",
          "type": "uint256"
        },
        {
          "internalType": "bytes",
          "name": "data",
          "type": "bytes"
        }
      ],
      "name": "safeTransferFrom",
      "outputs": [],
      "stateMutability": "nonpayable",
      "type": "function"
    },
    {
      "inputs": [
        {
          "internalType": "address",
          "name": "operator",
          "type": "address"
        },
        {
          "internalType": "bool",
          "name": "approved",
          "type": "bool"
        }
      ],
      "name": "setApprovalForAll",
      "outputs": [],
      "stateMutability": "nonpayable",
      "type": "function"
    },
    {
      "inputs": [
        {
          "internalType": "string",
          "name": "name",
          "type": "string"
        },
        {
          "internalType": "string",
          "name": "record",
          "type": "string"
        }
      ],
      "name": "setRecord",
      "outputs": [],
      "stateMutability": "nonpayable",
      "type": "function"
    },
    {
      "inputs": [
        {
          "internalType": "bytes4",
          "name": "interfaceId",
          "type": "bytes4"
        }
      ],
      "name": "supportsInterface",
      "outputs": [
        {
          "internalType": "bool",
          "name": "",
          "type": "bool"
        }
      ],
      "stateMutability": "view",
      "type": "function"
    },
    {
      "inputs": [],
      "name": "symbol",
      "outputs": [
        {
          "internalType": "string",
          "name": "",
          "type": "string"
        }
      ],
      "stateMutability": "view",
      "type": "function"
    },
    {
      "inputs": [],
      "name": "tld",
      "outputs": [
        {
          "internalType": "string",
          "name": "",
          "type": "string"
        }
      ],
      "stateMutability": "view",
      "type": "function"
    },
    {
      "inputs": [
        {
          "internalType": "uint256",
          "name": "tokenId",
          "type": "uint256"
        }
      ],
      "name": "tokenURI",
      "outputs": [
        {
          "internalType": "string",
          "name": "",
          "type": "string"
        }
      ],
      "stateMutability": "view",
      "type": "function"
    },
    {
      "inputs": [
        {
          "internalType": "address",
          "name": "from",
          "type": "address"
        },
        {
          "internalType": "address",
          "name": "to",
          "type": "address"
        },
        {
          "internalType": "uint256",
          "name": "tokenId",
          "type": "uint256"
        }
      ],
      "name": "transferFrom",
      "outputs": [],
      "stateMutability": "nonpayable",
      "type": "function"
    },
    {
      "inputs": [
        {
          "internalType": "string",
          "name": "name",
          "type": "string"
        }
      ],
      "name": "valid",
      "outputs": [
        {
          "internalType": "bool",
          "name": "",
          "type": "bool"
        }
      ],
      "stateMutability": "pure",
      "type": "function"
    },
    {
      "inputs": [],
      "name": "withdraw",
      "outputs": [],
      "stateMutability": "nonpayable",
      "type": "function"
    }
  ],
  "bytecode": "0x6080604052604051806108a0016040528061086b815260200162004f0561086b9139600990816200003191906200051f565b506040518060400160405280600d81526020017f3c2f746578743e3c2f7376673e00000000000000000000000000000000000000815250600a90816200007891906200051f565b50604051620057703803806200577083398181016040528101906200009e91906200076a565b6040518060400160405280601481526020017f506f6c79204d696e74696e6720536572766963650000000000000000000000008152506040518060400160405280600481526020017f504f4c590000000000000000000000000000000000000000000000000000000081525081600090816200011b91906200051f565b5080600190816200012d91906200051f565b50505033600d60006101000a81548173ffffffffffffffffffffffffffffffffffffffff021916908373ffffffffffffffffffffffffffffffffffffffff16021790555080600890816200018291906200051f565b50620001cf6040518060400160405280601881526020017f2573206e616d652073657276696365206465706c6f796564000000000000000081525082620001d660201b620017541760201c565b5062000848565b620002788282604051602401620001ef9291906200080d565b6040516020818303038152906040527f4b5c4277000000000000000000000000000000000000000000000000000000007bffffffffffffffffffffffffffffffffffffffffffffffffffffffff19166020820180517bffffffffffffffffffffffffffffffffffffffffffffffffffffffff83818316178352505050506200027c60201b60201c565b5050565b60008151905060006a636f6e736f6c652e6c6f679050602083016000808483855afa5050505050565b600081519050919050565b7f4e487b7100000000000000000000000000000000000000000000000000000000600052604160045260246000fd5b7f4e487b7100000000000000000000000000000000000000000000000000000000600052602260045260246000fd5b600060028204905060018216806200032757607f821691505b6020821081036200033d576200033c620002df565b5b50919050565b60008190508160005260206000209050919050565b60006020601f8301049050919050565b600082821b905092915050565b600060088302620003a77fffffffffffffffffffffffffffffffffffffffffffffffffffffffffffffffff8262000368565b620003b3868362000368565b95508019841693508086168417925050509392505050565b6000819050919050565b6000819050919050565b600062000400620003fa620003f484620003cb565b620003d5565b620003cb565b9050919050565b6000819050919050565b6200041c83620003df565b620004346200042b8262000407565b84845462000375565b825550505050565b600090565b6200044b6200043c565b6200045881848462000411565b505050565b5b8181101562000480576200047460008262000441565b6001810190506200045e565b5050565b601f821115620004cf57620004998162000343565b620004a48462000358565b81016020851015620004b4578190505b620004cc620004c38562000358565b8301826200045d565b50505b505050565b600082821c905092915050565b6000620004f460001984600802620004d4565b1980831691505092915050565b60006200050f8383620004e1565b9150826002028217905092915050565b6200052a82620002a5565b67ffffffffffffffff811115620005465762000545620002b0565b5b6200055282546200030e565b6200055f82828562000484565b600060209050601f83116001811462000597576000841562000582578287015190505b6200058e858262000501565b865550620005fe565b601f198416620005a78662000343565b60005b82811015620005d157848901518255600182019150602085019450602081019050620005aa565b86831015620005f15784890151620005ed601f891682620004e1565b8355505b6001600288020188555050505b505050505050565b6000604051905090565b600080fd5b600080fd5b600080fd5b600080fd5b6000601f19601f8301169050919050565b620006408262000624565b810181811067ffffffffffffffff82111715620006625762000661620002b0565b5b80604052505050565b60006200067762000606565b905062000685828262000635565b919050565b600067ffffffffffffffff821115620006a857620006a7620002b0565b5b620006b38262000624565b9050602081019050919050565b60005b83811015620006e0578082015181840152602081019050620006c3565b60008484015250505050565b600062000703620006fd846200068a565b6200066b565b9050828152602081018484840111156200072257620007216200061f565b5b6200072f848285620006c0565b509392505050565b600082601f8301126200074f576200074e6200061a565b5b815162000761848260208601620006ec565b91505092915050565b60006020828403121562000783576200078262000610565b5b600082015167ffffffffffffffff811115620007a457620007a362000615565b5b620007b28482850162000737565b91505092915050565b600082825260208201905092915050565b6000620007d982620002a5565b620007e58185620007bb565b9350620007f7818560208601620006c0565b620008028162000624565b840191505092915050565b60006040820190508181036000830152620008298185620007cc565b905081810360208301526200083f8184620007cc565b90509392505050565b6146ad80620008586000396000f3fe6080604052600436106101665760003560e01c806370a08231116100d1578063b88d4fde1161008a578063c87b56dd11610064578063c87b56dd14610574578063e985e9c5146105b1578063f2c298be146105ee578063fe2c61981461060a57610166565b8063b88d4fde146104e5578063bf40fac11461050e578063c1880a981461054b57610166565b806370a08231146103c15780638da5cb5b146103fe5780638f32d59b1461042957806395d89b41146104545780639791c0971461047f578063a22cb465146104bc57610166565b80632644923511610123578063264492351461029f5780632d551432146102dc5780633ccfd60b1461030757806342842e0e1461031e578063541e771d146103475780636352211e1461038457610166565b806301ffc9a71461016b57806306fdde03146101a8578063081812fc146101d3578063095ea7b31461021057806311dd88451461023957806323b872dd14610276575b600080fd5b34801561017757600080fd5b50610192600480360381019061018d9190612b9c565b610647565b60405161019f9190612be4565b60405180910390f35b3480156101b457600080fd5b506101bd610729565b6040516101ca9190612c8f565b60405180910390f35b3480156101df57600080fd5b506101fa60048036038101906101f59190612ce7565b6107bb565b6040516102079190612d55565b60405180910390f35b34801561021c57600080fd5b5061023760048036038101906102329190612d9c565b610801565b005b34801561024557600080fd5b50610260600480360381019061025b9190612e41565b610918565b60405161026d9190612c8f565b60405180910390f35b34801561028257600080fd5b5061029d60048036038101906102989190612e8e565b6109cb565b005b3480156102ab57600080fd5b506102c660048036038101906102c19190613011565b610a2b565b6040516102d39190612d55565b60405180910390f35b3480156102e857600080fd5b506102f1610a74565b6040516102fe9190612c8f565b60405180910390f35b34801561031357600080fd5b5061031c610b02565b005b34801561032a57600080fd5b5061034560048036038101906103409190612e8e565b610bc8565b005b34801561035357600080fd5b5061036e60048036038101906103699190613011565b610be8565b60405161037b9190612c8f565b60405180910390f35b34801561039057600080fd5b506103ab60048036038101906103a69190612ce7565b610c9e565b6040516103b89190612d55565b60405180910390f35b3480156103cd57600080fd5b506103e860048036038101906103e3919061305a565b610d24565b6040516103f59190613096565b60405180910390f35b34801561040a57600080fd5b50610413610ddb565b60405161042091906130d2565b60405180910390f35b34801561043557600080fd5b5061043e610e01565b60405161044b9190612be4565b60405180910390f35b34801561046057600080fd5b50610469610e59565b6040516104769190612c8f565b60405180910390f35b34801561048b57600080fd5b506104a660048036038101906104a19190612e41565b610eeb565b6040516104b39190612be4565b60405180910390f35b3480156104c857600080fd5b506104e360048036038101906104de9190613119565b610f9f565b005b3480156104f157600080fd5b5061050c600480360381019061050791906131fa565b610fb5565b005b34801561051a57600080fd5b5061053560048036038101906105309190612e41565b611017565b6040516105429190612d55565b60405180910390f35b34801561055757600080fd5b50610572600480360381019061056d919061327d565b611062565b005b34801561058057600080fd5b5061059b60048036038101906105969190612ce7565b61113d565b6040516105a89190612c8f565b60405180910390f35b3480156105bd57600080fd5b506105d860048036038101906105d391906132fe565b61124f565b6040516105e59190612be4565b60405180910390f35b61060860048036038101906106039190612e41565b6112e3565b005b34801561061657600080fd5b50610631600480360381019061062c9190612e41565b6116b3565b60405161063e9190613096565b60405180910390f35b60007f80ac58cd000000000000000000000000000000000000000000000000000000007bffffffffffffffffffffffffffffffffffffffffffffffffffffffff1916827bffffffffffffffffffffffffffffffffffffffffffffffffffffffff1916148061071257507f5b5e139f000000000000000000000000000000000000000000000000000000007bffffffffffffffffffffffffffffffffffffffffffffffffffffffff1916827bffffffffffffffffffffffffffffffffffffffffffffffffffffffff1916145b806107225750610721826117f0565b5b9050919050565b6060600080546107389061336d565b80601f01602080910402602001604051908101604052809291908181526020018280546107649061336d565b80156107b15780601f10610786576101008083540402835291602001916107b1565b820191906000526020600020905b81548152906001019060200180831161079457829003601f168201915b5050505050905090565b60006107c68261185a565b6004600083815260200190815260200160002060009054906101000a900473ffffffffffffffffffffffffffffffffffffffff169050919050565b600061080c82610c9e565b90508073ffffffffffffffffffffffffffffffffffffffff168373ffffffffffffffffffffffffffffffffffffffff160361087c576040517f08c379a000000000000000000000000000000000000000000000000000000000815260040161087390613410565b60405180910390fd5b8073ffffffffffffffffffffffffffffffffffffffff1661089b6118a5565b73ffffffffffffffffffffffffffffffffffffffff1614806108ca57506108c9816108c46118a5565b61124f565b5b610909576040517f08c379a0000000000000000000000000000000000000000000000000000000008152600401610900906134a2565b60405180910390fd5b61091383836118ad565b505050565b6060600c838360405161092c9291906134f2565b908152602001604051809103902080546109459061336d565b80601f01602080910402602001604051908101604052809291908181526020018280546109719061336d565b80156109be5780601f10610993576101008083540402835291602001916109be565b820191906000526020600020905b8154815290600101906020018083116109a157829003601f168201915b5050505050905092915050565b6109dc6109d66118a5565b82611966565b610a1b576040517f08c379a0000000000000000000000000000000000000000000000000000000008152600401610a129061357d565b60405180910390fd5b610a268383836119fb565b505050565b600b818051602081018201805184825260208301602085012081835280955050505050506000915054906101000a900473ffffffffffffffffffffffffffffffffffffffff1681565b60088054610a819061336d565b80601f0160208091040260200160405190810160405280929190818152602001828054610aad9061336d565b8015610afa5780601f10610acf57610100808354040283529160200191610afa565b820191906000526020600020905b815481529060010190602001808311610add57829003601f168201915b505050505081565b610b0a610e01565b610b1357600080fd5b600047905060003373ffffffffffffffffffffffffffffffffffffffff1682604051610b3e906135ce565b60006040518083038185875af1925050503d8060008114610b7b576040519150601f19603f3d011682016040523d82523d6000602084013e610b80565b606091505b5050905080610bc4576040517f08c379a0000000000000000000000000000000000000000000000000000000008152600401610bbb9061362f565b60405180910390fd5b5050565b610be383838360405180602001604052806000815250610fb5565b505050565b600c818051602081018201805184825260208301602085012081835280955050505050506000915090508054610c1d9061336d565b80601f0160208091040260200160405190810160405280929190818152602001828054610c499061336d565b8015610c965780601f10610c6b57610100808354040283529160200191610c96565b820191906000526020600020905b815481529060010190602001808311610c7957829003601f168201915b505050505081565b600080610caa83611cf4565b9050600073ffffffffffffffffffffffffffffffffffffffff168173ffffffffffffffffffffffffffffffffffffffff1603610d1b576040517f08c379a0000000000000000000000000000000000000000000000000000000008152600401610d129061369b565b60405180910390fd5b80915050919050565b60008073ffffffffffffffffffffffffffffffffffffffff168273ffffffffffffffffffffffffffffffffffffffff1603610d94576040517f08c379a0000000000000000000000000000000000000000000000000000000008152600401610d8b9061372d565b60405180910390fd5b600360008373ffffffffffffffffffffffffffffffffffffffff1673ffffffffffffffffffffffffffffffffffffffff168152602001908152602001600020549050919050565b600d60009054906101000a900473ffffffffffffffffffffffffffffffffffffffff1681565b6000600d60009054906101000a900473ffffffffffffffffffffffffffffffffffffffff1673ffffffffffffffffffffffffffffffffffffffff163373ffffffffffffffffffffffffffffffffffffffff1614905090565b606060018054610e689061336d565b80601f0160208091040260200160405190810160405280929190818152602001828054610e949061336d565b8015610ee15780601f10610eb657610100808354040283529160200191610ee1565b820191906000526020600020905b815481529060010190602001808311610ec457829003601f168201915b5050505050905090565b60006003610f3c84848080601f016020809104026020016040519081016040528093929190818152602001838380828437600081840152601f19601f82011690508083019250505050505050611d31565b10158015610f975750600a610f9484848080601f016020809104026020016040519081016040528093929190818152602001838380828437600081840152601f19601f82011690508083019250505050505050611d31565b11155b905092915050565b610fb1610faa6118a5565b8383611ee6565b5050565b610fc6610fc06118a5565b83611966565b611005576040517f08c379a0000000000000000000000000000000000000000000000000000000008152600401610ffc9061357d565b60405180910390fd5b61101184848484612052565b50505050565b6000600b838360405161102b9291906134f2565b908152602001604051809103902060009054906101000a900473ffffffffffffffffffffffffffffffffffffffff16905092915050565b600b84846040516110749291906134f2565b908152602001604051809103902060009054906101000a900473ffffffffffffffffffffffffffffffffffffffff1673ffffffffffffffffffffffffffffffffffffffff163373ffffffffffffffffffffffffffffffffffffffff1614611107576040517f82b4290000000000000000000000000000000000000000000000000000000000815260040160405180910390fd5b8181600c868660405161111b9291906134f2565b90815260200160405180910390209182611136929190613904565b5050505050565b60606111488261185a565b60006006600084815260200190815260200160002080546111689061336d565b80601f01602080910402602001604051908101604052809291908181526020018280546111949061336d565b80156111e15780601f106111b6576101008083540402835291602001916111e1565b820191906000526020600020905b8154815290600101906020018083116111c457829003601f168201915b5050505050905060006111f26120ae565b9050600081510361120757819250505061124a565b60008251111561123c578082604051602001611224929190613a05565b6040516020818303038152906040529250505061124a565b611245846120c5565b925050505b919050565b6000600560008473ffffffffffffffffffffffffffffffffffffffff1673ffffffffffffffffffffffffffffffffffffffff16815260200190815260200160002060008373ffffffffffffffffffffffffffffffffffffffff1673ffffffffffffffffffffffffffffffffffffffff16815260200190815260200160002060009054906101000a900460ff16905092915050565b600073ffffffffffffffffffffffffffffffffffffffff16600b838360405161130d9291906134f2565b908152602001604051809103902060009054906101000a900473ffffffffffffffffffffffffffffffffffffffff1673ffffffffffffffffffffffffffffffffffffffff1614611389576040517f3a81d6fc00000000000000000000000000000000000000000000000000000000815260040160405180910390fd5b6113938282610eeb565b6113d65781816040517f7f19f48d0000000000000000000000000000000000000000000000000000000081526004016113cd929190613a56565b60405180910390fd5b60006113e283836116b3565b905080341015611427576040517f08c379a000000000000000000000000000000000000000000000000000000000815260040161141e90613ac6565b60405180910390fd5b60008383600860405160200161143f93929190613bb5565b60405160208183030381529060405290506000600982600a60405160200161146993929190613be6565b60405160208183030381529060405290506000611486600761212d565b905060006114d787878080601f016020809104026020016040519081016040528093929190818152602001838380828437600081840152601f19601f82011690508083019250505050505050611d31565b905060006114e48261213b565b905061154d6040518060600160405280602e815260200161464a602e913989898080601f016020809104026020016040519081016040528093929190818152602001838380828437600081840152601f19601f8201169050808301925050505050505085612209565b60006115838661155c876122a8565b8460405160200161156f93929190613d93565b6040516020818303038152906040526122a8565b90506000816040516020016115989190613e3c565b60405160208183030381529060405290506115ca6040518060600160405280603981526020016145986039913961240b565b6116096040518060400160405280600e81526020017f46696e616c20746f6b656e55524900000000000000000000000000000000000081525082611754565b61162a6040518060600160405280603981526020016145d16039913961240b565b61163433866124a4565b61163e85826124c2565b33600b8b8b6040516116519291906134f2565b908152602001604051809103902060006101000a81548173ffffffffffffffffffffffffffffffffffffffff021916908373ffffffffffffffffffffffffffffffffffffffff1602179055506116a7600761252f565b50505050505050505050565b60008061170384848080601f016020809104026020016040519081016040528093929190818152602001838380828437600081840152601f19601f82011690508083019250505050505050611d31565b90506000811161171257600080fd5b6003810361172a5766b1a2bc2ec5000091505061174e565b6004810361174257666a94d74f43000091505061174e565b662386f26fc100009150505b92915050565b6117ec828260405160240161176a929190613e5e565b6040516020818303038152906040527f4b5c4277000000000000000000000000000000000000000000000000000000007bffffffffffffffffffffffffffffffffffffffffffffffffffffffff19166020820180517bffffffffffffffffffffffffffffffffffffffffffffffffffffffff8381831617835250505050612545565b5050565b60007f01ffc9a7000000000000000000000000000000000000000000000000000000007bffffffffffffffffffffffffffffffffffffffffffffffffffffffff1916827bffffffffffffffffffffffffffffffffffffffffffffffffffffffff1916149050919050565b6118638161256e565b6118a2576040517f08c379a00000000000000000000000000000000000000000000000000000000081526004016118999061369b565b60405180910390fd5b50565b600033905090565b816004600083815260200190815260200160002060006101000a81548173ffffffffffffffffffffffffffffffffffffffff021916908373ffffffffffffffffffffffffffffffffffffffff160217905550808273ffffffffffffffffffffffffffffffffffffffff1661192083610c9e565b73ffffffffffffffffffffffffffffffffffffffff167f8c5be1e5ebec7d5bd14f71427d1e84f3dd0314c0f7b2291e5b200ac8c7c3b92560405160405180910390a45050565b60008061197283610c9e565b90508073ffffffffffffffffffffffffffffffffffffffff168473ffffffffffffffffffffffffffffffffffffffff1614806119b457506119b3818561124f565b5b806119f257508373ffffffffffffffffffffffffffffffffffffffff166119da846107bb565b73ffffffffffffffffffffffffffffffffffffffff16145b91505092915050565b8273ffffffffffffffffffffffffffffffffffffffff16611a1b82610c9e565b73ffffffffffffffffffffffffffffffffffffffff1614611a71576040517f08c379a0000000000000000000000000000000000000000000000000000000008152600401611a6890613f07565b60405180910390fd5b600073ffffffffffffffffffffffffffffffffffffffff168273ffffffffffffffffffffffffffffffffffffffff1603611ae0576040517f08c379a0000000000000000000000000000000000000000000000000000000008152600401611ad790613f99565b60405180910390fd5b611aed83838360016125af565b8273ffffffffffffffffffffffffffffffffffffffff16611b0d82610c9e565b73ffffffffffffffffffffffffffffffffffffffff1614611b63576040517f08c379a0000000000000000000000000000000000000000000000000000000008152600401611b5a90613f07565b60405180910390fd5b6004600082815260200190815260200160002060006101000a81549073ffffffffffffffffffffffffffffffffffffffff02191690556001600360008573ffffffffffffffffffffffffffffffffffffffff1673ffffffffffffffffffffffffffffffffffffffff168152602001908152602001600020600082825403925050819055506001600360008473ffffffffffffffffffffffffffffffffffffffff1673ffffffffffffffffffffffffffffffffffffffff16815260200190815260200160002060008282540192505081905550816002600083815260200190815260200160002060006101000a81548173ffffffffffffffffffffffffffffffffffffffff021916908373ffffffffffffffffffffffffffffffffffffffff160217905550808273ffffffffffffffffffffffffffffffffffffffff168473ffffffffffffffffffffffffffffffffffffffff167fddf252ad1be2c89b69c2b068fc378daa952ba7f163c4a11628f55a4df523b3ef60405160405180910390a4611cef83838360016125b5565b505050565b60006002600083815260200190815260200160002060009054906101000a900473ffffffffffffffffffffffffffffffffffffffff169050919050565b60008060008084519050600092505b80821015611edb576000858381518110611d5d57611d5c613fb9565b5b602001015160f81c60f81b9050608060f81b817effffffffffffffffffffffffffffffffffffffffffffffffffffffffffffff19161015611dac57600183611da59190614017565b9250611ec7565b60e060f81b817effffffffffffffffffffffffffffffffffffffffffffffffffffffffffffff19161015611dee57600283611de79190614017565b9250611ec6565b60f060f81b817effffffffffffffffffffffffffffffffffffffffffffffffffffffffffffff19161015611e3057600383611e299190614017565b9250611ec5565b60f8801b817effffffffffffffffffffffffffffffffffffffffffffffffffffffffffffff19161015611e7157600483611e6a9190614017565b9250611ec4565b60fc60f81b817effffffffffffffffffffffffffffffffffffffffffffffffffffffffffffff19161015611eb357600583611eac9190614017565b9250611ec3565b600683611ec09190614017565b92505b5b5b5b5b508280611ed39061404b565b935050611d40565b829350505050919050565b8173ffffffffffffffffffffffffffffffffffffffff168373ffffffffffffffffffffffffffffffffffffffff1603611f54576040517f08c379a0000000000000000000000000000000000000000000000000000000008152600401611f4b906140df565b60405180910390fd5b80600560008573ffffffffffffffffffffffffffffffffffffffff1673ffffffffffffffffffffffffffffffffffffffff16815260200190815260200160002060008473ffffffffffffffffffffffffffffffffffffffff1673ffffffffffffffffffffffffffffffffffffffff16815260200190815260200160002060006101000a81548160ff0219169083151502179055508173ffffffffffffffffffffffffffffffffffffffff168373ffffffffffffffffffffffffffffffffffffffff167f17307eab39ab6107e8899845ad3d59bd9653f200f220920489ca2b5937696c31836040516120459190612be4565b60405180910390a3505050565b61205d8484846119fb565b612069848484846125bb565b6120a8576040517f08c379a000000000000000000000000000000000000000000000000000000000815260040161209f90614171565b60405180910390fd5b50505050565b606060405180602001604052806000815250905090565b60606120d08261185a565b60006120da6120ae565b905060008151116120fa5760405180602001604052806000815250612125565b806121048461213b565b604051602001612115929190613a05565b6040516020818303038152906040525b915050919050565b600081600001549050919050565b60606000600161214a84612742565b01905060008167ffffffffffffffff81111561216957612168612ee6565b5b6040519080825280601f01601f19166020018201604052801561219b5781602001600182028036833780820191505090505b509050600082602001820190505b6001156121fe578080600190039150507f3031323334353637383961626364656600000000000000000000000000000000600a86061a8153600a85816121f2576121f1614191565b5b049450600085036121a9575b819350505050919050565b6122a3838383604051602401612221939291906141c0565b6040516020818303038152906040527f5821efa1000000000000000000000000000000000000000000000000000000007bffffffffffffffffffffffffffffffffffffffffffffffffffffffff19166020820180517bffffffffffffffffffffffffffffffffffffffffffffffffffffffff8381831617835250505050612545565b505050565b606060008251036122ca57604051806020016040528060008152509050612406565b600060405180606001604052806040815260200161460a60409139905060006003600285516122f99190614017565b6123039190614205565b600461230f9190614236565b67ffffffffffffffff81111561232857612327612ee6565b5b6040519080825280601f01601f19166020018201604052801561235a5781602001600182028036833780820191505090505b509050600182016020820185865187015b808210156123c6576003820191508151603f8160121c168501518453600184019350603f81600c1c168501518453600184019350603f8160061c168501518453600184019350603f811685015184536001840193505061236b565b50506003865106600181146123e257600281146123f5576123fd565b603d6001830353603d60028303536123fd565b603d60018303535b50505080925050505b919050565b6124a18160405160240161241f9190612c8f565b6040516020818303038152906040527f41304fac000000000000000000000000000000000000000000000000000000007bffffffffffffffffffffffffffffffffffffffffffffffffffffffff19166020820180517bffffffffffffffffffffffffffffffffffffffffffffffffffffffff8381831617835250505050612545565b50565b6124be828260405180602001604052806000815250612895565b5050565b6124cb8261256e565b61250a576040517f08c379a0000000000000000000000000000000000000000000000000000000008152600401612501906142ea565b60405180910390fd5b8060066000848152602001908152602001600020908161252a919061430a565b505050565b6001816000016000828254019250508190555050565b60008151905060006a636f6e736f6c652e6c6f679050602083016000808483855afa5050505050565b60008073ffffffffffffffffffffffffffffffffffffffff1661259083611cf4565b73ffffffffffffffffffffffffffffffffffffffff1614159050919050565b50505050565b50505050565b60006125dc8473ffffffffffffffffffffffffffffffffffffffff166128f0565b15612735578373ffffffffffffffffffffffffffffffffffffffff1663150b7a026126056118a5565b8786866040518563ffffffff1660e01b81526004016126279493929190614431565b6020604051808303816000875af192505050801561266357506040513d601f19601f820116820180604052508101906126609190614492565b60015b6126e5573d8060008114612693576040519150601f19603f3d011682016040523d82523d6000602084013e612698565b606091505b5060008151036126dd576040517f08c379a00000000000000000000000000000000000000000000000000000000081526004016126d490614171565b60405180910390fd5b805181602001fd5b63150b7a0260e01b7bffffffffffffffffffffffffffffffffffffffffffffffffffffffff1916817bffffffffffffffffffffffffffffffffffffffffffffffffffffffff19161491505061273a565b600190505b949350505050565b600080600090507a184f03e93ff9f4daa797ed6e38ed64bf6a1f01000000000000000083106127a0577a184f03e93ff9f4daa797ed6e38ed64bf6a1f010000000000000000838161279657612795614191565b5b0492506040810190505b6d04ee2d6d415b85acef810000000083106127dd576d04ee2d6d415b85acef810000000083816127d3576127d2614191565b5b0492506020810190505b662386f26fc10000831061280c57662386f26fc10000838161280257612801614191565b5b0492506010810190505b6305f5e1008310612835576305f5e100838161282b5761282a614191565b5b0492506008810190505b612710831061285a5761271083816128505761284f614191565b5b0492506004810190505b6064831061287d576064838161287357612872614191565b5b0492506002810190505b600a831061288c576001810190505b80915050919050565b61289f8383612913565b6128ac60008484846125bb565b6128eb576040517f08c379a00000000000000000000000000000000000000000000000000000000081526004016128e290614171565b60405180910390fd5b505050565b6000808273ffffffffffffffffffffffffffffffffffffffff163b119050919050565b600073ffffffffffffffffffffffffffffffffffffffff168273ffffffffffffffffffffffffffffffffffffffff1603612982576040517f08c379a00000000000000000000000000000000000000000000000000000000081526004016129799061450b565b60405180910390fd5b61298b8161256e565b156129cb576040517f08c379a00000000000000000000000000000000000000000000000000000000081526004016129c290614577565b60405180910390fd5b6129d96000838360016125af565b6129e28161256e565b15612a22576040517f08c379a0000000000000000000000000000000000000000000000000000000008152600401612a1990614577565b60405180910390fd5b6001600360008473ffffffffffffffffffffffffffffffffffffffff1673ffffffffffffffffffffffffffffffffffffffff16815260200190815260200160002060008282540192505081905550816002600083815260200190815260200160002060006101000a81548173ffffffffffffffffffffffffffffffffffffffff021916908373ffffffffffffffffffffffffffffffffffffffff160217905550808273ffffffffffffffffffffffffffffffffffffffff16600073ffffffffffffffffffffffffffffffffffffffff167fddf252ad1be2c89b69c2b068fc378daa952ba7f163c4a11628f55a4df523b3ef60405160405180910390a4612b2c6000838360016125b5565b5050565b6000604051905090565b600080fd5b600080fd5b60007fffffffff0000000000000000000000000000000000000000000000000000000082169050919050565b612b7981612b44565b8114612b8457600080fd5b50565b600081359050612b9681612b70565b92915050565b600060208284031215612bb257612bb1612b3a565b5b6000612bc084828501612b87565b91505092915050565b60008115159050919050565b612bde81612bc9565b82525050565b6000602082019050612bf96000830184612bd5565b92915050565b600081519050919050565b600082825260208201905092915050565b60005b83811015612c39578082015181840152602081019050612c1e565b60008484015250505050565b6000601f19601f8301169050919050565b6000612c6182612bff565b612c6b8185612c0a565b9350612c7b818560208601612c1b565b612c8481612c45565b840191505092915050565b60006020820190508181036000830152612ca98184612c56565b905092915050565b6000819050919050565b612cc481612cb1565b8114612ccf57600080fd5b50565b600081359050612ce181612cbb565b92915050565b600060208284031215612cfd57612cfc612b3a565b5b6000612d0b84828501612cd2565b91505092915050565b600073ffffffffffffffffffffffffffffffffffffffff82169050919050565b6000612d3f82612d14565b9050919050565b612d4f81612d34565b82525050565b6000602082019050612d6a6000830184612d46565b92915050565b612d7981612d34565b8114612d8457600080fd5b50565b600081359050612d9681612d70565b92915050565b60008060408385031215612db357612db2612b3a565b5b6000612dc185828601612d87565b9250506020612dd285828601612cd2565b9150509250929050565b600080fd5b600080fd5b600080fd5b60008083601f840112612e0157612e00612ddc565b5b8235905067ffffffffffffffff811115612e1e57612e1d612de1565b5b602083019150836001820283011115612e3a57612e39612de6565b5b9250929050565b60008060208385031215612e5857612e57612b3a565b5b600083013567ffffffffffffffff811115612e7657612e75612b3f565b5b612e8285828601612deb565b92509250509250929050565b600080600060608486031215612ea757612ea6612b3a565b5b6000612eb586828701612d87565b9350506020612ec686828701612d87565b9250506040612ed786828701612cd2565b9150509250925092565b600080fd5b7f4e487b7100000000000000000000000000000000000000000000000000000000600052604160045260246000fd5b612f1e82612c45565b810181811067ffffffffffffffff82111715612f3d57612f3c612ee6565b5b80604052505050565b6000612f50612b30565b9050612f5c8282612f15565b919050565b600067ffffffffffffffff821115612f7c57612f7b612ee6565b5b612f8582612c45565b9050602081019050919050565b82818337600083830152505050565b6000612fb4612faf84612f61565b612f46565b905082815260208101848484011115612fd057612fcf612ee1565b5b612fdb848285612f92565b509392505050565b600082601f830112612ff857612ff7612ddc565b5b8135613008848260208601612fa1565b91505092915050565b60006020828403121561302757613026612b3a565b5b600082013567ffffffffffffffff81111561304557613044612b3f565b5b61305184828501612fe3565b91505092915050565b6000602082840312156130705761306f612b3a565b5b600061307e84828501612d87565b91505092915050565b61309081612cb1565b82525050565b60006020820190506130ab6000830184613087565b92915050565b60006130bc82612d14565b9050919050565b6130cc816130b1565b82525050565b60006020820190506130e760008301846130c3565b92915050565b6130f681612bc9565b811461310157600080fd5b50565b600081359050613113816130ed565b92915050565b600080604083850312156131305761312f612b3a565b5b600061313e85828601612d87565b925050602061314f85828601613104565b9150509250929050565b600067ffffffffffffffff82111561317457613173612ee6565b5b61317d82612c45565b9050602081019050919050565b600061319d61319884613159565b612f46565b9050828152602081018484840111156131b9576131b8612ee1565b5b6131c4848285612f92565b509392505050565b600082601f8301126131e1576131e0612ddc565b5b81356131f184826020860161318a565b91505092915050565b6000806000806080858703121561321457613213612b3a565b5b600061322287828801612d87565b945050602061323387828801612d87565b935050604061324487828801612cd2565b925050606085013567ffffffffffffffff81111561326557613264612b3f565b5b613271878288016131cc565b91505092959194509250565b6000806000806040858703121561329757613296612b3a565b5b600085013567ffffffffffffffff8111156132b5576132b4612b3f565b5b6132c187828801612deb565b9450945050602085013567ffffffffffffffff8111156132e4576132e3612b3f565b5b6132f087828801612deb565b925092505092959194509250565b6000806040838503121561331557613314612b3a565b5b600061332385828601612d87565b925050602061333485828601612d87565b9150509250929050565b7f4e487b7100000000000000000000000000000000000000000000000000000000600052602260045260246000fd5b6000600282049050600182168061338557607f821691505b6020821081036133985761339761333e565b5b50919050565b7f4552433732313a20617070726f76616c20746f2063757272656e74206f776e6560008201527f7200000000000000000000000000000000000000000000000000000000000000602082015250565b60006133fa602183612c0a565b91506134058261339e565b604082019050919050565b60006020820190508181036000830152613429816133ed565b9050919050565b7f4552433732313a20617070726f76652063616c6c6572206973206e6f7420746f60008201527f6b656e206f776e6572206f7220617070726f76656420666f7220616c6c000000602082015250565b600061348c603d83612c0a565b915061349782613430565b604082019050919050565b600060208201905081810360008301526134bb8161347f565b9050919050565b600081905092915050565b60006134d983856134c2565b93506134e6838584612f92565b82840190509392505050565b60006134ff8284866134cd565b91508190509392505050565b7f4552433732313a2063616c6c6572206973206e6f7420746f6b656e206f776e6560008201527f72206f7220617070726f76656400000000000000000000000000000000000000602082015250565b6000613567602d83612c0a565b91506135728261350b565b604082019050919050565b600060208201905081810360008301526135968161355a565b9050919050565b600081905092915050565b50565b60006135b860008361359d565b91506135c3826135a8565b600082019050919050565b60006135d9826135ab565b9150819050919050565b7f4661696c656420746f207769746864726177204d617469630000000000000000600082015250565b6000613619601883612c0a565b9150613624826135e3565b602082019050919050565b600060208201905081810360008301526136488161360c565b9050919050565b7f4552433732313a20696e76616c696420746f6b656e2049440000000000000000600082015250565b6000613685601883612c0a565b91506136908261364f565b602082019050919050565b600060208201905081810360008301526136b481613678565b9050919050565b7f4552433732313a2061646472657373207a65726f206973206e6f74206120766160008201527f6c6964206f776e65720000000000000000000000000000000000000000000000602082015250565b6000613717602983612c0a565b9150613722826136bb565b604082019050919050565b600060208201905081810360008301526137468161370a565b9050919050565b600082905092915050565b60008190508160005260206000209050919050565b60006020601f8301049050919050565b600082821b905092915050565b6000600883026137ba7fffffffffffffffffffffffffffffffffffffffffffffffffffffffffffffffff8261377d565b6137c4868361377d565b95508019841693508086168417925050509392505050565b6000819050919050565b60006138016137fc6137f784612cb1565b6137dc565b612cb1565b9050919050565b6000819050919050565b61381b836137e6565b61382f61382782613808565b84845461378a565b825550505050565b600090565b613844613837565b61384f818484613812565b505050565b5b818110156138735761386860008261383c565b600181019050613855565b5050565b601f8211156138b85761388981613758565b6138928461376d565b810160208510156138a1578190505b6138b56138ad8561376d565b830182613854565b50505b505050565b600082821c905092915050565b60006138db600019846008026138bd565b1980831691505092915050565b60006138f483836138ca565b9150826002028217905092915050565b61390e838361374d565b67ffffffffffffffff81111561392757613926612ee6565b5b613931825461336d565b61393c828285613877565b6000601f83116001811461396b5760008415613959578287013590505b61396385826138e8565b8655506139cb565b601f19841661397986613758565b60005b828110156139a15784890135825560018201915060208501945060208101905061397c565b868310156139be57848901356139ba601f8916826138ca565b8355505b6001600288020188555050505b50505050505050565b60006139df82612bff565b6139e981856134c2565b93506139f9818560208601612c1b565b80840191505092915050565b6000613a1182856139d4565b9150613a1d82846139d4565b91508190509392505050565b6000613a358385612c0a565b9350613a42838584612f92565b613a4b83612c45565b840190509392505050565b60006020820190508181036000830152613a71818486613a29565b90509392505050565b7f4e6f7420656e6f756768204d6174696320706169640000000000000000000000600082015250565b6000613ab0601583612c0a565b9150613abb82613a7a565b602082019050919050565b60006020820190508181036000830152613adf81613aa3565b9050919050565b7f2e00000000000000000000000000000000000000000000000000000000000000600082015250565b6000613b1c6001836134c2565b9150613b2782613ae6565b600182019050919050565b60008154613b3f8161336d565b613b4981866134c2565b94506001821660008114613b645760018114613b7957613bac565b60ff1983168652811515820286019350613bac565b613b8285613758565b60005b83811015613ba457815481890152600182019150602081019050613b85565b838801955050505b50505092915050565b6000613bc28285876134cd565b9150613bcd82613b0f565b9150613bd98284613b32565b9150819050949350505050565b6000613bf28286613b32565b9150613bfe82856139d4565b9150613c0a8284613b32565b9150819050949350505050565b7f7b226e616d65223a202200000000000000000000000000000000000000000000600082015250565b6000613c4d600a836134c2565b9150613c5882613c17565b600a82019050919050565b7f222c20226465736372697074696f6e223a20224120646f6d61696e206f6e207460008201527f686520506f6c79204d696e742073657276696365222c2022696d616765223a2060208201527f22646174613a696d6167652f7376672b786d6c3b6261736536342c0000000000604082015250565b6000613ce5605b836134c2565b9150613cf082613c63565b605b82019050919050565b7f222c20226c656e677468223a2022000000000000000000000000000000000000600082015250565b6000613d31600e836134c2565b9150613d3c82613cfb565b600e82019050919050565b7f227d000000000000000000000000000000000000000000000000000000000000600082015250565b6000613d7d6002836134c2565b9150613d8882613d47565b600282019050919050565b6000613d9e82613c40565b9150613daa82866139d4565b9150613db582613cd8565b9150613dc182856139d4565b9150613dcc82613d24565b9150613dd882846139d4565b9150613de382613d70565b9150819050949350505050565b7f646174613a6170706c69636174696f6e2f6a736f6e3b6261736536342c000000600082015250565b6000613e26601d836134c2565b9150613e3182613df0565b601d82019050919050565b6000613e4782613e19565b9150613e5382846139d4565b915081905092915050565b60006040820190508181036000830152613e788185612c56565b90508181036020830152613e8c8184612c56565b90509392505050565b7f4552433732313a207472616e736665722066726f6d20696e636f72726563742060008201527f6f776e6572000000000000000000000000000000000000000000000000000000602082015250565b6000613ef1602583612c0a565b9150613efc82613e95565b604082019050919050565b60006020820190508181036000830152613f2081613ee4565b9050919050565b7f4552433732313a207472616e7366657220746f20746865207a65726f2061646460008201527f7265737300000000000000000000000000000000000000000000000000000000602082015250565b6000613f83602483612c0a565b9150613f8e82613f27565b604082019050919050565b60006020820190508181036000830152613fb281613f76565b9050919050565b7f4e487b7100000000000000000000000000000000000000000000000000000000600052603260045260246000fd5b7f4e487b7100000000000000000000000000000000000000000000000000000000600052601160045260246000fd5b600061402282612cb1565b915061402d83612cb1565b925082820190508082111561404557614044613fe8565b5b92915050565b600061405682612cb1565b91507fffffffffffffffffffffffffffffffffffffffffffffffffffffffffffffffff820361408857614087613fe8565b5b600182019050919050565b7f4552433732313a20617070726f766520746f2063616c6c657200000000000000600082015250565b60006140c9601983612c0a565b91506140d482614093565b602082019050919050565b600060208201905081810360008301526140f8816140bc565b9050919050565b7f4552433732313a207472616e7366657220746f206e6f6e20455243373231526560008201527f63656976657220696d706c656d656e7465720000000000000000000000000000602082015250565b600061415b603283612c0a565b9150614166826140ff565b604082019050919050565b6000602082019050818103600083015261418a8161414e565b9050919050565b7f4e487b7100000000000000000000000000000000000000000000000000000000600052601260045260246000fd5b600060608201905081810360008301526141da8186612c56565b905081810360208301526141ee8185612c56565b90506141fd6040830184613087565b949350505050565b600061421082612cb1565b915061421b83612cb1565b92508261422b5761422a614191565b5b828204905092915050565b600061424182612cb1565b915061424c83612cb1565b925082820261425a81612cb1565b9150828204841483151761427157614270613fe8565b5b5092915050565b7f45524337323155524953746f726167653a2055524920736574206f66206e6f6e60008201527f6578697374656e7420746f6b656e000000000000000000000000000000000000602082015250565b60006142d4602e83612c0a565b91506142df82614278565b604082019050919050565b60006020820190508181036000830152614303816142c7565b9050919050565b61431382612bff565b67ffffffffffffffff81111561432c5761432b612ee6565b5b614336825461336d565b614341828285613877565b600060209050601f8311600181146143745760008415614362578287015190505b61436c85826138e8565b8655506143d4565b601f19841661438286613758565b60005b828110156143aa57848901518255600182019150602085019450602081019050614385565b868310156143c757848901516143c3601f8916826138ca565b8355505b6001600288020188555050505b505050505050565b600081519050919050565b600082825260208201905092915050565b6000614403826143dc565b61440d81856143e7565b935061441d818560208601612c1b565b61442681612c45565b840191505092915050565b60006080820190506144466000830187612d46565b6144536020830186612d46565b6144606040830185613087565b818103606083015261447281846143f8565b905095945050505050565b60008151905061448c81612b70565b92915050565b6000602082840312156144a8576144a7612b3a565b5b60006144b68482850161447d565b91505092915050565b7f4552433732313a206d696e7420746f20746865207a65726f2061646472657373600082015250565b60006144f5602083612c0a565b9150614500826144bf565b602082019050919050565b60006020820190508181036000830152614524816144e8565b9050919050565b7f4552433732313a20746f6b656e20616c7265616479206d696e74656400000000600082015250565b6000614561601c83612c0a565b915061456c8261452b565b602082019050919050565b6000602082019050818103600083015261459081614554565b905091905056fe0a2d2d2d2d2d2d2d2d2d2d2d2d2d2d2d2d2d2d2d2d2d2d2d2d2d2d2d2d2d2d2d2d2d2d2d2d2d2d2d2d2d2d2d2d2d2d2d2d2d2d2d2d2d2d2d2d2d2d2d2d2d2d2d2d2d2d2d2d2d2d2d2d2d2d2d2d2d2d2d2d2d2d2d2d2d2d2d2d2d2d2d2d2d2d2d2d2d2d2d2d2d2d2d2d2d2d2d2d2d2d2d2d0a4142434445464748494a4b4c4d4e4f505152535455565758595a6162636465666768696a6b6c6d6e6f707172737475767778797a303132333435363738392b2f5265676973746572696e67202573206f6e2074686520636f6e7472616374207769746820746f6b656e4944202564a2646970667358221220b8b9cf7b0e1914ba12bcff58c7033431300bcd90a062bbe3ee457eef4e6d395864736f6c634300081100333c73766720786d6c6e733d22687474703a2f2f7777772e77332e6f72672f323030302f737667222077696474683d2232373022206865696768743d22323730222066696c6c3d226e6f6e65223e3c706174682066696c6c3d2275726c282342292220643d224d302030683237307632373048307a222f3e3c646566733e3c66696c7465722069643d22412220636f6c6f722d696e746572706f6c6174696f6e2d66696c746572733d2273524742222066696c746572556e6974733d227573657253706163654f6e55736522206865696768743d22323730222077696474683d22323730223e3c666544726f70536861646f772064783d2230222064793d22312220737464446576696174696f6e3d22322220666c6f6f642d6f7061636974793d222e323235222077696474683d223230302522206865696768743d2232303025222f3e3c2f66696c7465723e3c2f646566733e3c7061746820643d224d37322e3836332034322e393439632d2e3636382d2e3338372d312e3432362d2e35392d322e3139372d2e3539732d312e3532392e3230342d322e3139372e35396c2d31302e30383120362e3033322d362e383520332e3933342d31302e30383120362e303332632d2e3636382e3338372d312e3432362e35392d322e3139372e3539732d312e3532392d2e3230342d322e3139372d2e35396c2d382e3031332d342e37323161342e353220342e35322030203020312d312e3538392d312e363136632d2e3338342d2e3636352d2e3539342d312e3431382d2e3630382d322e313837762d392e3331632d2e3031332d2e3737352e3138352d312e3533382e3537322d322e32303861342e323520342e323520302030203120312e3632352d312e3539356c372e3838342d342e3539632e3636382d2e33383720312e3432362d2e353920322e3139372d2e353973312e3532392e32303420322e3139372e35396c372e38383420342e353961342e353220342e353220302030203120312e35383920312e363136632e3338342e3636352e35393420312e3431382e36303820322e31383776362e3033326c362e38352d342e303635762d362e303332632e3031332d2e3737352d2e3138352d312e3533382d2e3537322d322e32303861342e323520342e32352030203020302d312e3632352d312e3539354c34312e3435362032342e3539632d2e3636382d2e3338372d312e3432362d2e35392d322e3139372d2e3539732d312e3532392e3230342d322e3139372e35396c2d31342e38363420382e36353561342e323520342e32352030203020302d312e36323520312e353935632d2e3338372e36372d2e35383520312e3433342d2e35373220322e3230387631372e343431632d2e3031332e3737352e31383520312e3533382e35373220322e32303861342e323520342e323520302030203020312e36323520312e3539356c31342e38363420382e363535632e3636382e33383720312e3432362e353920322e3139372e353973312e3532392d2e32303420322e3139372d2e35396c31302e3038312d352e39303120362e38352d342e3036352031302e3038312d352e393031632e3636382d2e33383720312e3432362d2e353920322e3139372d2e353973312e3532392e32303420322e3139372e35396c372e38383420342e353961342e353220342e353220302030203120312e35383920312e363136632e3338342e3636352e35393420312e3431382e36303820322e31383776392e333131632e3031332e3737352d2e31383520312e3533382d2e35373220322e32303861342e323520342e32352030203020312d312e36323520312e3539356c2d372e38383420342e373231632d2e3636382e3338372d312e3432362e35392d322e3139372e3539732d312e3532392d2e3230342d322e3139372d2e35396c2d372e3838342d342e353961342e353220342e35322030203020312d312e3538392d312e363136632d2e3338352d2e3636352d2e3539342d312e3431382d2e3630382d322e313837762d362e3033326c2d362e383520342e30363576362e303332632d2e3031332e3737352e31383520312e3533382e35373220322e32303861342e323520342e323520302030203020312e36323520312e3539356c31342e38363420382e363535632e3636382e33383720312e3432362e353920322e3139372e353973312e3532392d2e32303420322e3139372d2e35396c31342e3836342d382e363535632e3635372d2e33393420312e3230342d2e393520312e3538392d312e363136732e3539342d312e3431382e3630392d322e3138375635352e353338632e3031332d2e3737352d2e3138352d312e3533382d2e3537322d322e32303861342e323520342e32352030203020302d312e3632352d312e3539356c2d31342e3939332d382e3738367a222066696c6c3d2223666666222f3e3c646566733e3c6c696e6561724772616469656e742069643d2242222078313d2230222079313d2230222078323d22323730222079323d2232373022206772616469656e74556e6974733d227573657253706163654f6e557365223e3c73746f702073746f702d636f6c6f723d2223636235656565222f3e3c73746f70206f66667365743d2231222073746f702d636f6c6f723d2223306364376534222073746f702d6f7061636974793d222e3939222f3e3c2f6c696e6561724772616469656e743e3c2f646566733e3c7465787420783d2233322e352220793d223233312220666f6e742d73697a653d223237222066696c6c3d2223666666222066696c7465723d2275726c282341292220666f6e742d66616d696c793d22506c7573204a616b617274612053616e732c44656a6156752053616e732c4e6f746f20436f6c6f7220456d6f6a692c4170706c6520436f6c6f7220456d6f6a692c73616e732d73657269662220666f6e742d7765696768743d22626f6c64223e",
  "linkReferences": {},
  "deployedLinkReferences": {}
}